:020000040800F2
:10000000401C0020CD020008B33600087D310008F6
:10001000B1360008071E00084F420008000000002B
:100020000000000000000000000000003502000891
:100030002120000800000000790200087D3F000830
:10004000E7020008E7020008E7020008E7020008EC
:10005000E7020008E7020008E7020008E7020008DC
:10006000E7020008E7020008E7020008E7020008CC
:10007000E7020008E7020008E7020008E7020008BC
:10008000E7020008E7020008E7020008E7020008AC
:10009000E7020008E7020008E7020008E70200089C
:1000A000E7020008E7020008E7020008E70200088C
:1000B000E7020008E7020008E7020008E70200087C
:1000C000E7020008E7020008E7020008E70200086C
:1000D000E7020008E7020008E7020008E70200085C
:1000E000E7020008E7020008E702000800F002F853
:1000F00000F090F80AA090E8000C82448344AAF132
:100100000107DA4501D100F085F8AFF2090EBAE82F
:100110000F0013F0010F18BFFB1A43F0010318473B
:100120003870000058700000103A24BF78C878C1B9
:10013000FAD8520724BF30C830C144BF04680C60ED
:10014000704700000023002400250026103A28BF35
:1001500078C1FBD8520728BF30C148BF0B60704739
:100160006E2900F06783702900F0C784662905F0C6
:10017000AB84652905F0A884672905F0A584612969
:1001800005F0A48403681B0A28BF41F08001692997
:1001900000F03C81642900F03981752900F0368136
:1001A0006F2900F05484782900F09384E92900F045
:1001B000EF83E42900F0EC83F52900F0E983EF29CF
:1001C00000F05184F82900F092840368DB0928BF0D
:1001D00041F08001632900F07083732900F075837A
:1001E000E32901F09380F32901F098800020704703
:1001F0001FB501F0E5F804000020002105F04EFCD9
:10020000401C60600020002105F032FCE0601FBD52
:1002100010B510BD01F0A6F81146FFF7E9FF04F094
:1002200067F801F083F903B4FFF7F2FF03BC01F0B4
:10023000CBF90000224B19680868B0E8F00F80F392
:100240000988BFF36F8F4FF0000080F311884EF0E4
:100250000D0E70470000000006480068006880F33B
:10026000088862B661B6BFF34F8FBFF36F8F00DFB0
:1002700000BF00BF08ED00E0EFF30980BFF36F8F10
:100280000F4B1A6820E9F00F106008B54FF05000CE
:1002900080F31188BFF34F8FBFF36F8F04F064FEBC
:1002A0004FF0000080F31188BDE808401968086825
:1002B000B0E8F00F80F30988BFF36F8F704700BF7D
:1002C00060000020EFF30580704700000948804778
:1002D00009480047FEE7FEE7FEE7FEE7FEE7FEE728
:1002E000FEE7FEE7FEE7FEE704480549054A064B40
:1002F00070470000F13F0008ED00000840160020A4
:10030000401C002040180020401800207CB51D46ED
:1003100016460C00009001D02044401E074B7B4441
:100320002A4669460190304600F09DFA05461CB108
:100330000020694600F0AAFA28467CBD7505000039
:100340000FB41CB5084B06AA7B446946009005987B
:1003500000F089FA04460020694600F097FA20462A
:100360001CBC5DF814FB00004105000070B504469C
:1003700085690068C10601D5302600E02026C00747
:1003800007D070BDD4E9012130469047206A401C57
:1003900020626D1EF6D570BD70B504468569007883
:1003A000C00707D170BDD4E9012120209047206A01
:1003B000401C20626D1EF6D570BD70B50C4605461A
:1003C000012A05D02878800600D5EA69002302E0DA
:1003D000012305E05B1C934202D2E05C0028F9D1C6
:1003E000A869E618C01AA861286A18442862284635
:1003F000FFF7BCFF04E0D5E9012114F8010B904799
:10040000B442F8D32846FFF7C7FF70BD2DE9F0418D
:100410000646002410687529314616A510D000F054
:100420009EF9002802DA404213A507E031688A07E6
:1004300001D512A502E0490704D511A5012401E068
:1004400000F096F900210A2206F1240709E0B0FB2A
:10045000F2FCB0FBF2F302FB1C003030785418467B
:10046000491C0028F3D123462A463046BDE8F04116
:1004700000F087B9000000002D0000002B000000F4
:10048000200000002DE9F05F894604464FF0000A85
:10049000DFF874B1FB44C0F820A02046E16888472B
:1004A000002874D0252806D0D4E901219047206A7D
:1004B000401C2062F1E700265F462046E16888473D
:1004C0002028054607DB312D05D2781910F8200CBD
:1004D00008B10643F1E7B00701D526F00406C4F8D9
:1004E0001CA00027C4F818A02A2D09D0284603F024
:1004F000D3FE38B304EB8708303DC8F8185019E034
:1005000059F8041B204604EB87029161E168884793
:10051000012F054618D1E069002820DA26F02006D0
:100520001DE0D8F8180000EB800005EB40003038E3
:10053000C8F818002046E1688847054603F0ACFE7D
:100540000028EED1012F0AD02E2D08D12046E168D7
:1005500088477F1C0546022F46F02006C4DBA069B1
:10056000002803DA404246F00106A061F00701D0FE
:1005700026F010066C2D0BD0682D09D04C2D39D0EB
:100580006A2D35D0742D35D07A2D33D016E038E071
:10059000E1682F4620468847B842054609D16C2FAE
:1005A00026D04FF48060E168064320468847054620
:1005B00004E06C2F1AD04FF4807006430DB3A5F100
:1005C0004100192802D8203546F400664A462946DB
:1005D000204626604E46FFF7C3FD80B101280BD0B0
:1005E000F61D26F0070000F1080956E74020E4E771
:1005F0008020D8E70020D6E706F104094DE7284619
:1006000052E7206ABDE8F09F9A6B0000032A40F28F
:10061000308010F0030C00F0158011F8013BBCF1A4
:10062000020F624498BF11F801CB00F8013B38BFBC
:1006300011F8013BA2F1040298BF00F801CB38BFCA
:1006400000F8013B11F0030300F02580083AC0F0E8
:10065000088051F8043B083A51F804CBA0E8081090
:10066000F5E7121D5CBF51F8043B40F8043BAFF3C3
:100670000080D20724BF11F8013B11F801CB48BF1D
:1006800011F8012B24BF00F8013B00F801CB48BF53
:1006900000F8012B704710B5203AC0F00B80B1E88C
:1006A0001850203AA0E81850B1E81850A0E81850A7
:1006B000BFF4F5AF5FEA027C24BFB1E81850A0E8B0
:1006C000185044BF18C918C0BDE810405FEA827CCA
:1006D00024BF51F8043B40F8043B08BF7047D207E1
:1006E00028BF31F8023B48BF11F8012B28BF20F882
:1006F000023B48BF00F8012B704702F0FF0343EABA
:10070000032242EA024200F005BA4FF0000200B5AF
:10071000134694469646203922BFA0E80C50A0E824
:100720000C50B1F12001BFF4F7AF090728BFA0E8D2
:100730000C5048BF0CC05DF804EB890028BF40F89E
:10074000042B08BF704748BF20F8022B11F0804FE0
:1007500018BF00F8012B7047704770477047096851
:100760004A0501D540B27047C905FCD500B27047B3
:1007700009684A0501D5C0B27047C905FCD580B2E9
:1007800070472DE9F0470D4699469246044600F120
:1007900024080168880604D5E06921F01001216071
:1007A00000E00120A84201DD471B00E00027A1690D
:1007B0007A1902EB0900081AA0612078C00602D459
:1007C0002046FFF7D3FD002608E0D4E901211AF8FE
:1007D00006009047206A401C761C20624E45F4DBE0
:1007E0002078C0060AD52046FFF7C0FD06E0D4E910
:1007F000012130209047206A401C2062381EA7F15A
:100800000107F4DC07E0D4E9012118F8050090475E
:10081000206A401C2062281EA5F10105F3DC204659
:10082000FFF7BAFD2078000602D50220BDE8F08768
:100830000120FBE711680268006A530501D50870C2
:100840000AE0D30501D5088006E0130603D5C217D8
:10085000C1E9000200E008600120704701694A1CFC
:1008600002610878704700B58FB0CDE901310021F1
:10087000059105497944CDE9031011466846FFF713
:1008800001FE0FB000BD0000E5FFFFFF0A6802F89F
:10089000010B0A607047D1E900239A4202D2531C2F
:1008A0000B601070704710B5436913B1AFF300804F
:1008B00001E0FFF782FD012010BD127800F1240154
:1008C0000A7000224A700122EDE711684FF0FF32F2
:1008D000E9E700002DE9FF5F15468A460446DFF888
:1008E000AC80F8440027D8E900103E46CDE900105E
:1008F00010E03AF816106A4602A800F013FD411CF9
:1009000007D02178890603D5E269391891420DD8BC
:100910000744761C2078800602D5E069B84205DDE0
:10092000AE42E6DB3AF816000028E2D1A069C01B0F
:10093000A0612046FFF71AFDD8E90010CDE90010AC
:10094000002017E03AF818106A4602A800F0EAFC06
:10095000B0F1FF3F81460BD000250DF1080B05E0FB
:10096000D4E901211BF8050090476D1C4D45F7D3D4
:1009700008F10100B0428046E4DB206A384420627E
:100980002046FFF709FDBDE8FF9F00005E670000FD
:100990002DE9F0418046D21D22F007020025D2E960
:1009A0000002F52915A614D0011E72F1000106DA25
:1009B0000023D0EB030063EB020211A608E0D8F895
:1009C00000108B0701D50FA602E0490701D50EA63E
:1009D00001251146002408F1240704E000F0BAF8CC
:1009E00030323A55641C50EA0102F7D12B463246A8
:1009F00021464046BDE8F041FFF7C3BE00000000BD
:100A00002D0000002B0000002000000030B4002169
:100A100000F1240408E002F00705D208303542EA6C
:100A20004372DB086554491C52EA0305F3D104689C
:100A3000002310A2250707D5A40600D421B1C4695C
:100A400001230DA2641EC46130BCFFF79ABE10B52D
:100A5000044621461068FFF78BFE02462046BDE89B
:100A600010400023D2E7D21D22F00701D1E9002374
:100A7000CCE700000000000030000000F0B40D469C
:100A80000188090502D5214C7C4402E01F4C7C44BE
:100A90000E34002100F1240608E002F00F071209CD
:100AA000E75D42EA03721B097754491C52EA0307C7
:100AB000F3D102780023120704D5702D06D009B1B6
:100AC000022311342246F0BCFFF75BBE0123103431
:100AD000F8E770B504460D4621461068FFF748FE5A
:100AE000024629462046BDE870400023C6E7D21DD5
:100AF00022F00703D3E90023C0E70368126843F03C
:100B0000200303600823C3610023B7E7C06500002A
:100B10004FF000020429C0F0128010F0030C3FF4E3
:100B2000F6ADCCF1040CBCF1020F18BF00F8012B9C
:100B3000A8BF20F8022BA1EB0C01FFF7E8BD5FEA8C
:100B4000C17C24BF00F8012B00F8012B48BF00F83E
:100B5000012B704730B5B0F10A024FEA900E71F1E7
:100B600000034EEA817EB0EB0E0061EB91014FEA8B
:100B7000101E4EEA017E10EB0E0041EB11114FEA00
:100B8000102E4EEA016E10EB0E0041EB11214FEAE0
:100B9000104E4EEA014E10EB0E0041EB1141401891
:100BA00041F100014FEAD00040EA41704FEAD10123
:100BB00010EB80054FEA810444EA907444EB010491
:100BC0006D1944EB0404521BA3414FF0000348BFCE
:100BD0000A3200D530BD401C41F1000130BD7047E4
:100BE0002DE9FF4F0C461E464FF0FF378BB0D2E980
:100BF0000001DDF860800A908A46C1F30A5505B904
:100C00003D46002108464FF00000BAF1000F00F405
:100C1000400005DA00EB80004FF4400101EA50008B
:100C20004FEA9059B9F1010F00DDB9460A9850EA30
:100C30004A000ED044F61050A5F2FF3545432F145C
:100C4000B8F1000F1ED07542291E1EDDC9F1000249
:100C50001CE0B8F1010F4FF0000001D0302103E09B
:100C6000F24305E02154401CB042FBDB3046002239
:100C7000002121540B99C1F80880C1E900200FB070
:100C8000BDE8F08FBD1B6D1CDEE74A4600DA694205
:100C900006A800F0D9FB06AB93E8070003AB83E896
:100CA000070050460A9900F096FC8DE80700A0F571
:100CB00000501F3800900398002D0ADD42F21F01FA
:100CC0004A460844002303A90390684600F0FFFE4B
:100CD00009E0A0F500504A461F38002303A90390FD
:100CE000684600F009FF8DE807000004000C03D0FF
:100CF0004FF0FF30410800E01046B8F1000F03D07C
:100D00000022009215461EE0751E05D4FFF722FF53
:100D1000303262556D1EF9D5B3460122084302D028
:100D200000227F1C04E02078302801D100227F1EA1
:100D3000002A099784D01DE0112D07DAFFF70AFF7A
:100D4000303262556D1C50EA0102F5D1084302D0E1
:100D50000098C8B10EE00021681E05E0235C625CCB
:100D600063542254401E491C8142F7DBAB46A81B4A
:100D7000401E0990002004F80B000B98099AC0F857
:100D80000880C0E9002B7AE711264FF0000857E7EA
:100D90002DE9F04F88460446D21D22F0070191B09C
:100DA000D1E90001CDE90A0103F052FA02460B989D
:100DB000C00F01D02D2007E02068810701D52B202E
:100DC00002E0202101EAC000032A099001D0072A8D
:100DD00005DB03464146204600F0F6FA0BE1207899
:100DE000800601D5E06900E00620B8F1650F814674
:100DF00006D0B8F1660F18D0B8F1670F70D131E0A6
:100E00000020B9F1110F009001DB112301E009F17D
:100E100001030AAA01A90CA8FFF7E2FEDDE90C70A4
:100E2000002609F10105834647E001204B4600906A
:100E30004FF000470AAA01A90CA8FFF7D1FEDDE98F
:100E40000DB00C995D46002610B909F101000D188E
:100E5000B9EB050003D4C0F1FF3609F10105A5EB9C
:100E600009002BE0B9F1010F01DA4FF00109002070
:100E7000B9F1110F0090484601DD112300E003464F
:100E80000AAA01A90CA8FFF7ABFEDDE90C704D46DC
:100E900000268346207800070AD4AB4500DA5D4679
:100EA00001A8012D04DD411911F8011C302907D0DA
:100EB0004F4502DA17F1040F04DA012082460FE0F1
:100EC0006D1EEEE7002F02DCED1B3E4403E0781CB4
:100ED000A84200DD7D1CB81B00F1010A4FF000475D
:100EE0002078000703D4AA4501DB4FF0FF3A002128
:100EF000B7F1004F0DF143088DF8431024D00220C4
:100F00002B23002F01DA7F422D230A21021EA0F19C
:100F1000010000DC5FB197FBF1FC97FBF1F201FBF4
:100F20001C7C17460CF1300C08F801CDEEE7A8F157
:100F3000010003702188090501D5452100E06521E4
:100F4000A0F1010800F8011C09980FA9A1EB0807FE
:100F5000FF1D00B10120411901EBEA70A16938447D
:100F6000081A401EA0612078C00602D42046FFF770
:100F7000FDF9099828B1D4E901219047206A401C65
:100F800020622078C00622D52046FFF7EFF91EE048
:100F9000002E04DBB34502DD01A8805D00E03020B7
:100FA000D4E901219047206A401C2062761CAAF1F6
:100FB00001005FEA000A0AD100F002FAC068016885
:100FC000405CD4E901219047206A401C2062281E21
:100FD000A5F10105DCDC07E0D4E9012118F8010BDB
:100FE0009047206A401C2062381EA7F10107F3DCFD
:100FF0002046FFF7D1F9032011B041E62DE9F04F6B
:1010000004460D46D21D22F0070089B0D0E90097B2
:101010004846394603F01CF90246F80F01D02D234B
:1010200007E02068810701D52B2302E0202101EA97
:10103000C0038DF820300BB1012000E00020032A0E
:10104000824601D0072A04DB2946204600F0BCF97D
:101050003FE12078800601D40D2500E0E569C7F363
:101060000A560D2D49DA00214FEA175B08464FF06A
:101070000000002F00F4400007DA00EB80004FF47E
:10108000400100EBD07001EA60008115012901DD0B
:101090004FF0FF3100224FEA850CBCF1180F06D348
:1010A0001346ACF118004FF08052C24003E04FF4F9
:1010B000801323FA0CF30CF10C0CBCF1200F04D3B9
:1010C000ACF1200C09FA0CF001E007FA0CF0002951
:1010D0004FF0004801DD18B90FE00ED140450CD3A8
:1010E00019EB02095F4121B9404502D19F4329EA2A
:1010F0000209BBEB175F00D0761C2088000502D5E3
:101100007B48784402E07A487844193808AA3023AA
:1011100002F80A30037C0AF10101002E0AF1020AEA
:1011200053546A4602DC4FF0300101E04FF03101C8
:101130004FF001088DF8001002D0A6F2FF3603E050
:1011400059EA470100D06B4E002D02DC21780907D7
:1011500004D54FF002082E218DF80110C44600215D
:101160000BE0C7F303433F01C35C491C6D1E02F84B
:101170000830052908F1010801DA002DF1DC002111
:101180000CE000EB1973491C1B786D1E082902F84E
:1011900008304FEA091908F1010801DA002DF0DCE6
:1011A00021688B0602D516E0A8F10108E04505DDAF
:1011B00002EB080313F8013C302BF5D0B8F1000F17
:1011C00009DD02EB080313F8013C2E2B03D10907BC
:1011D00001D4A8F10108002D05DD3E2102F8081018
:1011E0006D1E08F10108407C002E02F8080008F18D
:1011F000010804DA2D20764202F8080002E02B20D4
:1012000002F808000A214FF47A70864208F10108BA
:101210000BDB96FBF0F3303302F8083096FBF0F36B
:1012200008F1010800FB136601E0642E0CDB64206A
:1012300096FBF0F3303302F8083096FBF0F308F138
:10124000010800FB136601E00A2E06DB96FBF1F0B5
:10125000303002F8080008F1010896FBF1F001FBBC
:101260001060303002F80800A16908F1010808EBAD
:10127000050202EB0A00081AA0612078C00602D419
:101280002046FFF773F8216A08AE01EB0A002062DE
:1012900004E0D4E9012116F8010B9047BAF1010AE4
:1012A000F7D22078C00602D52046FFF75FF86E46D9
:1012B00009E016F8010B3E280FD0D4E90121904730
:1012C000206A401C2062B8F10108F2D22046FFF7E4
:1012D00063F809B00320BDE8F08F206A284420623B
:1012E00003E0D4E90121302090476D1EEBD3F8E7ED
:1012F000815F000002FCFFFF10B5436913B1AFF33B
:10130000008001E0FFF7E6FA012010BD128800F12D
:10131000240182840022C2840122EDE711684FF08B
:10132000FF32E9E770B516460C46054600F040F876
:10133000036893F80101012806D0FF2C0FD8185D2F
:1013400068B101202C7070BDD3F8070132462146E8
:1013500003F2071303442846BDE8704018474FF0D6
:10136000FF3070BD754600F0EBF8AE4605006946EB
:10137000534620F00700854618B020B5FEF7B4FFAD
:10138000BDE820404FF000064FF000074FF0000886
:101390004FF0000B21F00701AC46ACE8C009ACE807
:1013A000C009ACE8C009ACE8C0098D467047000030
:1013B00010B500F005F8001D10BD00BFE1460000AB
:1013C00000487047FC1500202DE9F0411F460446F7
:1013D00003260168072A01F4006004DB08B116A5A2
:1013E00005E016A503E008B115A500E015A521F05C
:1013F00010002060A069C01EA0610FB1401EA06156
:101400002046FEF7B3FF4FB1D4E90121384690479B
:10141000206A401C2062C01C206206E0206AFAE7B5
:10142000D4E9012115F8010B9047761EF8D2204629
:10143000FEF7B2FFBDE8F0814E414E006E616E00D6
:10144000494E4600696E66002DE9F0478146164612
:101450008AB0354878440DC88DE80D00324878448C
:10146000801C03AC0DC884E80D0041F69B30084495
:10147000372190FBF1F290FBF1F5A5F1800501FB1E
:1014800012041B3C02D56442012000E00020DFF87A
:1014900098A080460027FA44AAF1BE0A0EE0E007B1
:1014A0000AD03246684607EB470101230AEB810167
:1014B00000F022FB8DE8070064107F1C002CEED1A9
:1014C000194F7F44AE3F19E0E80715D007EB041031
:1014D0000DF1180A90E80E008AE80E00C068F0428C
:1014E00001D1981908903246012306A903A800F0FB
:1014F00003FB03AB83E807006D10641C002DE3D1F0
:101500004FF0010332466946B8F1000F03A802D03C
:1015100000F0DDFA01E000F0EFFAC9E90001C9F8D6
:1015200008200AB0BDE8F087C05C000010B5044692
:10153000AFF300802046BDE81040FEF774BE000007
:1015400000487047DC1500204FF0013C50F8042B98
:1015500051F8043B9A4221D1A2EB0C03934313EAC6
:10156000CC1317D150F8042B51F8043B9A4215D1F3
:10157000A2EB0C03934313EACC130BD150F8042BCA
:1015800051F8043B9A4209D1A2EB0C03934313EAAE
:10159000CC13DBD04FF00000704700BFD01A01BA67
:1015A000B1FA81F101F0180122FA01F0CB40C1F14A
:1015B0002001DBB2C0B2C01A2CFA01F3D11A914358
:1015C00011EAC311E6D1704701491820ABBEFEE70E
:1015D0002600020070475FEA400C08BF91F0000F40
:1015E0004FEA8C234FEAC12243EA51514FEA1C5083
:1015F00018BF00F5F0404FEA300018BF41F000413D
:101600005FEA6C5C00F02980BCF1FF3F08BF40F04E
:1016100080407047130C06BF12044FF0100C4FF0BF
:10162000000C130E04BF12020CF1080C130F04BFC0
:1016300012010CF1040C930F04BF92000CF1020C88
:10164000D30F04BF52000CF1010C11464FF0000201
:10165000A0F11F00A0EB0C00704711F0004F08BF75
:10166000704731F000413FF4D5AF0B0C06BF0904C1
:101670004FF0100C4FF0000C0B0E04BF09020CF1E0
:10168000080C0B0F04BF09010CF1040C8B0F04BFF5
:1016900089000CF1020CCB0F04BF49000CF1010CC6
:1016A000CCF12003A0EB0C0022FA03F302FA0CF2B7
:1016B00041EA030100F10100704720F07F4C80EA0D
:1016C000030023F07F47ACEB070303F57C5300F0E6
:1016D000004003F1FF032DE980494FEA154B09B49F
:1016E0004FEA144325EA0B4E24EA03480FF204267E
:1016F00006EB132749083E785FEA320203FB0667D0
:10170000C7F5000707FB06F64FEA54374FEAD646FF
:1017100006F1020607FB066CCCF1005C4FEA1C47A1
:101720002CEA074C07FB06F40CFB06F504EB154608
:101730004FEA961634BF00204FF000404FEAD137F1
:1017400006FB07FC4FEA1C4C0CFB0BF7D21B03FB00
:101750000CF761EB07010CFB0EF7B0EB074072EBE7
:1017600017420CFB08F734BFA2EB0742B2EB07426B
:1017700061EB17414FEA0C444FEA910706FB07FC67
:101780004FEA1C4C0CFB0BF7B0EBC74072EB573227
:1017900003FB0CF734BFA2EBC742B2EBC74261EBCD
:1017A00057310CFB0EF7B0EBC70072EB57720CFB16
:1017B00008F734BFA2EBC702B2EBC70261EB577167
:1017C000039F4FEA816141EA921104EBCC044FEA96
:1017D000D1374FEA826206FB07FC42EA90124FEAD9
:1017E00080604FEA1C4C0CFB0BF7D21B03FB0CF781
:1017F00061EB07010CFB0EF7B0EB074072EB1742F1
:101800000CFB08F734BFA2EB0742B2EB074261EBD7
:1018100017414FEA8C554FEA910704EB9C2406FBD5
:1018200007FC4FEA1C4C0CFB0BF7B0EBC74072EB0C
:10183000573203FB0CF734BFA2EBC742B2EBC742EF
:1018400061EB57310CFB0EF7B0EBC70072EB577230
:101850000CFB08F734BFA2EBC702B2EBC70261EB87
:10186000577115EB4C254FEA816141EA92114FEA1D
:1018700082624FEAD13742EA901206FB07FC44F13C
:1018800000044FEA80604FEA1C4C0CFB0BF7D21BA4
:1018900003FB0CF761EB07010CFB0EF7B0EB074005
:1018A00072EB17420CFB08F734BFA2EB0742B2EB16
:1018B000074261EB174115EB1C154FEA813141EAF4
:1018C00092414FEA823242EA90424FEA80304FEA38
:1018D0000C7644F1000448EA03434EEA0B484FF00B
:1018E000000EB2EB080C71EB030724BF62463946C9
:1018F0004EEB0E0E4FF0000B0018524149414BEBDE
:101900000B0BB2EB080C71EB03077BF1000B24BF50
:10191000624639464EEB0E0E4FF0000B0018524156
:1019200049414BEB0B0BB2EB080C71EB03077BF15E
:10193000000B24BF624639464EEB0E0E51EA0207F9
:1019400018BF46F0010616EB0E7655F1000254F171
:10195000000103D5BDE88901BDE80088BDE8890123
:10196000BDE80048B619524141EB0101A3F1010362
:10197000704780807F7E7D7C7B7A797877767675FC
:101980007473727171706F6E6E6D6C6C6B6A6A6974
:101990006868676666656464636362616160605F0E
:1019A0005F5E5E5D5D5C5C5B5B5A5A595958585787
:1019B00057565655555554545353525252515150EF
:1019C00050504F4F4F4E4E4D4D4D4C4C4C4B4B4B42
:1019D0004A4A4A4949494848484747474746464688
:1019E00045454544444444434343434242424241C3
:1019F0004141002B9C4630D477002BD01CB54FEAD8
:101A0000370703B44FF010004FF01001BAF1000F88
:101A100006D0BCF1000FDCBF40F0080040F0080128
:101A20004FF000000FBCBDE810400BF1010BBBF103
:101A3000010F08BF5FEA170722BF12F1010211F17F
:101A400001014FF0004143F1000300F0004043EA80
:101A500000007047F9D35708D0E746EA064613F16D
:101A6000400F4FEA16461FDD13F1200FDFBF16436C
:101A70000A46002120335B42BED0C3F1200746EA6C
:101A8000064602FA07F74FEA164646EA0706C3F18A
:101A9000200722FA03F201FA07F721FA03F14FF0C7
:101AA000000342EA0702A7E746EA020646EA0646BC
:101AB0004FEA164646EA0106BCBF46EA0646360C21
:101AC0004FF000034FF000024FF0000194E72DE9C2
:101AD000804C9A46934670B491E8380007C831EAC2
:101AE000400C48BF34EA430C03D5FFF7E6FDFFF78F
:101AF00080FFF0BCBDE8008C2DE9804C9A469346EF
:101B000070B491E8380007C810F0804F08BF13F098
:101B1000804F03D100F005F8FFF76BFFF0BCBDE884
:101B2000008C20F07F4780EA030023F07F4C07EB16
:101B30000C03A3F57C5300F00040A3F1FE0392F0E8
:101B4000000F00F0B38095F0000F00F077802DE9D2
:101B500001494FEA11404FEA144621EA004800FBD0
:101B600006FC24EA064708FB06F607FB08F800FB1C
:101B700007F718EB06484CEB164C4FEA124B18EBE4
:101B800007484FEA15464CEB174022EA0B4E0BFB79
:101B900006FC25EA06470EFB06F607FB0EFE0BFBCE
:101BA00007F71EEB064E4CEB164C4FF000061EEBF3
:101BB000074E4CEB174B18EB0B0840F1000018EBED
:101BC0000E0B58EB000840F100008F1A4FF0000197
:101BD0003CBFC943661B14BFB5EB040C00213CBFDE
:101BE000C943F61B4FEA17444EEA8E0E27EA044516
:101BF0004FEA1C4704FB07622CEA074C05FB07F77A
:101C00000CFB05F604FB0CFC16EB074642EB1742F7
:101C100016EB0C4642EB1C421BEB060658EB02028D
:101C2000414146EA9E0601D5BDE80189B6195241F7
:101C300041EB0101A3F10103BDE801894FEA14451D
:101C40004FEA114724EA054621EA074C05FB07F451
:101C500006FB07F70CFB06F105FB0CFC11EB07413B
:101C600044EB17444FEA124711EB0C4144EB1C4480
:101C700022EA074C05FB07F206FB07F70CFB06F60A
:101C800005FB0CFC16EB074642EB174216EB0C4625
:101C900042EB1C456A1854F1000148BF7047B61961
:101CA000524141EB0101A3F10103704795F0000F90
:101CB00037D04FEA11424FEA144721EA024624EA9C
:101CC000074C02FB07F106FB07F70CFB06F402FBCF
:101CD0000CFC14EB074441EB17414FEA154714EB9A
:101CE0000C4441EB1C4125EA074C02FB07F506FBBF
:101CF00007F70CFB06F602FB0CFC16EB074645EB60
:101D0000174516EB0C4645EB1C42121951F1000128
:101D100048BF7047B619524141EB0101A3F10103DD
:101D200070474FEA14454FEA114724EA054621EA75
:101D3000074C05FB07F106FB07F70CFB06F24FF01B
:101D4000000605FB0CFC12EB074241EB174112EBBE
:101D50000C4251EB1C4148BF7047921841EB010106
:101D6000A3F10103704700F00F01000900EB8000B0
:101D700001EB4000C0B2704770B50446018B40696A
:101D800000F04AFAE1780126814204D0E070267121
:101D900000F04CFAA0602079002540B100F046FA2E
:101DA000A168401A0F2802D3E0786070257160782E
:101DB000A17888420FD0F0B100F038FAE168401AFB
:101DC000B0F57A7F02D8204602F0A6FE02F06BFA48
:101DD00025746078A070207C00280BD000F026FAD3
:101DE000E168401A40F6B831884203D3204602F039
:101DF00071FA257470BD2674204602F055FA00F081
:101E000015FAE060E5E7FEE701234370C3708370D5
:101E100041610283704770B5054600244FF47A761D
:101E200004E0304600F006F8641CA4B2AC42F8D3DB
:101E300070BD0000054909680A68516A89B2536A91
:101E40005B1A9BB28342FAD3704700005C0000200B
:101E50001FB50022CDE90012012102910221039158
:101E6000694600F0E9F81FBD1FB5009101210191FD
:101E7000029102210391694600F0DEF81FBD70B5A2
:101E800005460C462820FFF7D5FF2146284600F0DE
:101E9000C3F988B9642300222146284600F0A0F83F
:101EA000002809DB642301222146284600F098F827
:101EB000002801DB012070BDFF2070BD70B5144605
:101EC0000D46064600F06BF829463046FFF7D7FF6F
:101ED000012801D0FF2070BD2946304600F034F8BB
:101EE00020702946304600F02FF8607029463046B1
:101EF00000F02AF8A0702946304600F025F8E0707E
:101F00002946304600F020F8207121786278E37885
:101F10001144A2781A441144814201D0FE2070BDC0
:101F2000002070BD10B5074C3F21206041604FF686
:101F3000FF71C16000F092FF2068BDE8104000F022
:101F4000CDBF00005C0000202DE9F04100240E46CA
:101F500007462546642300223146384600F040F803
:101F6000002814DB2820FFF765FF6006040E3146C9
:101F7000384600F051F9012801D144F001046423EE
:101F800001223146384600F02BF8002802DAFF2003
:101F9000BDE8F0816D1C082DDCDB2046F8E770B54C
:101FA0000C460546FFF760FF01222146284600F057
:101FB00038F900222146284600F033F91420FFF7B3
:101FC0002AFF01222146284600F02BF91420FFF7B2
:101FD00031FF21462846BDE87040FFF739BF0000B9
:101FE0002DE9F0470D4C81461F462068164688466D
:101FF0000068456A0AE020680068406A401B80B2B9
:10200000B84203D94FF0FF30BDE8F087414648465B
:1020100000F002F9B042EED00020F5E75C000020AD
:1020200070470A21B0FBF1F201FB1202B0FBF1F0A4
:1020300042EA0010C0B270472DE9F84FDFF8B891BE
:102040000024A9F1040B23460F2709F1040AABF180
:10205000040EC9E00125A5402A40AA427DD1674E61
:10206000D1F804C0ACEB0608B44532D014DCBCF1A6
:10207000030F3AD009DCBCF1000F2AD0BCF1010FEC
:102080001CD0BCF1020F31D11DE0BCF1110F17D0F3
:10209000BCF1120F2AD119E0B8F5881F19D006DC5F
:1020A000B8F5803F15D0B8F5801F1FD111E0B8F505
:1020B000001F0ED0B8F5041F18D10AE0CB6815E058
:1020C000CB681B1D12E0CB6808330FE0CB680C33E4
:1020D0000CE08B682BB1012B4FF0080303D0456156
:1020E00004E0042302E0056100E00023FF2A01D898
:1020F000064601E000F104064FEA840501D9A5F186
:102100002005D6F8008007FA05FC28EA0C0803FA37
:1021100005F548EA0508C6F800804D68ED0062D56F
:10212000374DAE6946F00106AE61AD6924F0030695
:1021300005F001050095334D06EB050CDCF8085061
:10214000A607360F07FA06F825EA0805DFF8B88073
:10215000404503D14FF0000817E044E0DFF8AC80C1
:10216000404502D14FF001080FE0DFF8A480404560
:1021700002D14FF0020808E0DFF89880404502D114
:102180004FF0030801E04FF0040808FA06F848EAA7
:102190000508CCF808804D68D9F80060ED024D467E
:1021A00001D5164300E096432E604D68DAF80060D2
:1021B000AD02554601D5164300E096432E604D68AA
:1021C000DBF80060AD035D4601D5164300E09643A1
:1021D0002E604D68DEF80060ED03754601D51643AC
:1021E00000E096432E60641C0D682A46E5407FF4AB
:1021F00031AFBDE8F88F0000080401400000111065
:10220000001002400000014000080140000C0140A5
:1022100000100140001401408068084000D00120F7
:1022200070470AB1016170470904FBE70148806803
:10223000704700003400002070B5040025D094F8E9
:102240003D00002520B984F83C50204600F076FA85
:10225000242084F83D002068016821F0010101601C
:102260002068016841F4004101602068016821F4A0
:102270000041016000F0D4FB4D4A6168914201D8F1
:102280004C4900E04C49884201D2012070BD4B49C5
:102290002368B0FBF1F15E6826F03F060E435E60F6
:1022A0006368934206D94FF4967359434FF47A7397
:1022B000B1FBF3F12368491C1E6A26F03F06314347
:1022C00019626168914210D84900401EB0FBF1F2DA
:1022D000521CC2F30B02042A01D2042022E0B0FBFC
:1022E000F1F0401CC0F30B001CE0A268F2B301EB5C
:1022F000C10303EB0116431EB3FBF6F35B1C43F46F
:1023000080431B0549D092B301EBC10202EB0111DE
:10231000401EB0FBF1F0401CC0F30B0040F48040C5
:1023200040F400402168CA694CF6FF739A43104399
:10233000C861D4E9071001432068026822F0C00296
:1023400011430160D4E9030101432068826848F227
:10235000FF339A4311438160D4E9050108432168A2
:10236000CA6822F0FF021043C86001E00EE016E0E8
:102370002068016841F0010101602564202084F893
:102380003D00256384F83E50002070BD01EB4106FE
:10239000431EB3FBF6F35B1CB3E70120C2E701EB7E
:1023A0004101401EB0FBF1F0401CC0F30B00B7E749
:1023B000A086010080841E0000093D0040420F00FD
:1023C0002DE9F84F0025DDF82890984617468A46F3
:1023D00004460095FFF72AFF064694F83D002028A2
:1023E0007AD11923012286492046009600F0CEFFBB
:1023F0000028F5D194F83C0001286DD0012084F824
:102400003C0020680168C90703D1016841F001015F
:1024100001602068016821F400610160222084F8D5
:102420003D00102084F83E0025646762A4F82A80ED
:10243000608D20857348E06233464A465146204607
:1024400000F0B4FE00287CD1208DDFF8BC8120276D
:1024500068B1012814D00228206801681ED041F418
:10246000806101602068416980690090BBE020685C
:10247000416981690091016841F400710160B2E035
:102480002068016821F48061016072B620684169AA
:1024900081690091016841F400710AE041F4006132
:1024A000016072B62068416981690091016821F478
:1024B0008061016062B696E0032865D801280CD0DF
:1024C00002284B464FF000024146204600960BD0B2
:1024D00000F05CFFA8BB0CE090E032464946204685
:1024E00000F0FAFF68BB71E000F050FF48BB72B625
:1024F00033E02068016821F48061016072B62068D1
:102500000069616A0870606A401C6062208D401E2C
:102510002085608D401E60853C4846F2A811006809
:10252000B0FBF1F0C0EBC00000EB80000090401E5B
:10253000009007D020684069C04340070DD500983F
:10254000F5E727E044F8305F6773A573206940F032
:102550002000206162B625731CE02068016841F408
:102560000071016020680069616A0870606A401C3F
:102570006062218D491E2185618D491E618562B68B
:1025800021680969017025E032464946204600F07D
:10259000A3FF10B10120BDE8F88F20680069616ACF
:1025A0000870606A401C6062208D401E81B22185E7
:1025B000608D401E608520684269D243520712D464
:1025C000032903D1016821F480610160206800695A
:1025D000616A0870606A401C6062208D401E208520
:1025E000608D401E6085208D00287FF465AF84F8E3
:1025F0003D7084F83E5084F83C50CCE70220CAE796
:10260000020010000000FFFF040001004000002055
:102610002DE9F84F1F4690468A460446DDF828907B
:10262000FFF704FE054694F83D0020287FD11923CA
:10263000012240492046009500F0A8FE002876D1EE
:1026400094F83C00012872D0012084F83C002068F6
:102650000168C90703D1016841F0010101602068E8
:10266000016821F400610160212084F83D00102000
:1026700084F83E0000262664C4F824806785608DB7
:1026800020852D48E0622B464A465146204600F000
:1026900003FE90B9206841698069009036E02A46BF
:1026A0004946204600F050FF50B1206C042804D168
:1026B0002068016841F4007101600120BDE8F88FD5
:1026C000606A216800780861606A401C6062618D00
:1026D000491E6185218D491E89B221852268536971
:1026E000DB435B070BD451B100781061606A401C7A
:1026F0006062608D401E6085208D401E20852A46C8
:102700004946204600F016FE0028CED1208D002834
:10271000C5D154F83D0B016841F4007101602020DF
:1027200004F81E09E67766770020C7E7FFE7022076
:10273000C4E70000020010000000FFFF30B585B0C4
:10274000002100910191029103911E4D03681E4CDE
:10275000122103221D48AB4216D1A36943F008039E
:10276000A361A369039203F008030493C023CDE996
:1027700000316946FFF760FCE06940F40010E06159
:10278000E06900F4001019E0114DAB4217D1A369C4
:1027900043F00803A361A369039203F008030493C1
:1027A0004FF44063CDE900316946FFF745FCE0692D
:1027B00040F48000E061E06900F48000049005B01E
:1027C00030BD00000054004000100240000C0140E9
:1027D00000580040024881680278114481607047C7
:1027E00034000020074810B5016841F01001016075
:1027F000032000F06DF80F2000F006F800F024F838
:10280000002010BD0020024070B50D4D04464FF46D
:102810007A712878B1FBF0F00A490968B1FBF0F051
:1028200000F0D4FA48B9102C07D200222146501EDD
:1028300000F02EF800206C6070BD012070BD00001B
:1028400034000020400000200F4808B5816941F0A5
:1028500001018161816901F001010091C16941F0CB
:102860008051C161C069002200F0805000900F21AA
:10287000901E00F00DF80548416821F0E06141F03C
:102880000071416008BD00000010024000000140DE
:10289000F0B40E4B1B680C46C3F30223C3F10705CB
:1028A000042D00D90425191D072901D2002300E0B9
:1028B000DB1E012606FA05F1491E214099409E4083
:1028C000761E16403143F0BC01F0D6BC0CED00E0A2
:1028D000064900F0070208684FF6FF03184040EA77
:1028E0000220034A10430860704700000CED00E02E
:1028F0000000FA052DE9F0470F46050061D0434E70
:10290000306800F00700B84209D2306820F00700B4
:1029100038433060306800F00700B84251D1286871
:102920003B4C810712D5400703D5606840F4E06056
:1029300060602878000703D5606840F460506060EC
:102940006068A96820F0F000084360602878C0073C
:1029500028D06868012810D02168022810D0890783
:1029600000292EDA616821F0030101436160FFF75D
:102970005DFC804641F288390DE021688903EFE76C
:102980008901EDE7FFF752FCA0EB0801494502D9A8
:102990000320BDE8F0876068696800F00C00B0EBC8
:1029A000810FEFD1306800F00700B8420BD93068D2
:1029B00020F0070038433060306800F00700B8426C
:1029C00001D00120E5E72878400705D56068E9686F
:1029D00020F4E060084360602878000706D560684E
:1029E000296920F4605040EAC100606000F038F8C6
:1029F0006168084AC1F30311515CC8400649086088
:102A000006480068FFF700FF0020C2E700200240F0
:102A100000100240525B00084000002038000020F7
:102A20000448054900684968044AC1F30221515C21
:102A3000C84070474000002000100240625B000860
:102A40000448054900684968044AC1F3C221515C41
:102A5000C84070474000002000100240625B000840
:102A60000E4A51680E4801F00C03042B11D0082BBC
:102A70000FD10C48C1F38343C903C05C0AD5516828
:102A8000084AC1F34041921E515C054A5043B0FBD5
:102A9000F1F07047044948437047000000100240BD
:102AA00000127A00425B000800093D002DE9F84F52
:102AB000040070D02078C04DC00749D06868C0F3CA
:102AC0008100012807D06868C0F38100022809D17D
:102AD0006868C00306D52868800339D56068002877
:102AE000E7D035E06068B0F5803F0BD010B1B0F5AD
:102AF000A02F11D0286820F480302860286820F4A6
:102B0000802002E0286840F480302860606890B13E
:102B1000FFF78CFB06460AE0286840F48020286016
:102B2000F0E700BFFFF782FB801B642873D828689A
:102B30008003F7D50CE0FFF779FB064605E000BF00
:102B4000FFF774FB801B6428F0D828688003F7D453
:102B500020789A4E80074FF001094FF0000839D5D0
:102B6000686810F00C0F07D06868C0F38100022875
:102B700009D16868C00306D42868800714D5206985
:102B8000012808D110E02069B0B1C6F80090FFF725
:102B90004DFB074605E00AE1FFF748FBC01B022892
:102BA000C4D828688007F7D52868616920F0F80044
:102BB00040EAC10028600DE0C6F80080FFF736FB50
:102BC000074604E0FFF732FBC01B022823D8286821
:102BD0008007F7D4207800072CD57948A169D9B1AE
:102BE000C0F80090FFF722FB074604E0FFF71EFB4A
:102BF000C01B02280FD8686A8007F7D571484FF4C8
:102C0000FA510068B0FBF1F0009000BF0098411E3F
:102C10000091FAD20EE080E0C0F80080FFF706FBDA
:102C2000074604E0FFF702FBC01B022875D8686A5C
:102C30008007F7D42078400760D5E8690027C000F6
:102C400008D4E86940F08050E861E869012700F0A5
:102C5000805000905C480168C90513D40168834620
:102C600041F480710160FFF7E1FA824606E000BF9F
:102C7000FFF7DCFAA0EB0A0064284ED8DBF800006E
:102C8000C005F5D5E06801280AD008B1052813D0A1
:102C9000286A20F001002862286A20F0040002E07F
:102CA000286A40F001002862E06841F2883B98B150
:102CB000FFF7BCFA82460BE0286A40F00400286265
:102CC000EEE700BFFFF7B2FAA0EB0A0159455AD868
:102CD000286A8007F6D50CE0FFF7A8FA824605E0DF
:102CE000FFF7A4FAA0EB0A0159454CD8286A8007DF
:102CF000F6D41FB1E86920F08050E861E06988B33C
:102D00006968C1F38101022944D00228C6F86080B5
:102D100004D0FFF78BFA044638E034E0FFF786FA78
:102D2000074604E0FFF782FAC01B02282BD8286868
:102D30008001F7D4206AB0F5803F05D16868A168AA
:102D400020F4003008436860D4E90801084369684A
:102D500021F4741108436860C6F86090FFF766FAC2
:102D6000044606E025E000BFFFF760FA001B0228DA
:102D700009D828688001F7D51BE000BFFFF756FA95
:102D8000001B022802D90320BDE8F88F28688001C3
:102D9000F4D40EE00128F7D06868226A00F480318C
:102DA000914204D1616A00F47010884201D0012080
:102DB000EAE70020E8E7000000100240000042427D
:102DC00080044242400000200070004010B5401EC8
:102DD000B0F1807F01D3012010BD4FF0E02460618D
:102DE0000F21601701F048FA0020A0610720206140
:102DF000002010BD70B590F83C20012A26D0012497
:102E000080F83C40022280F83D2003685A689D68A3
:102E100022F070060A6832435A600D4B02689A42EB
:102E200008D0B2F1804F05D00A4B9A4202D00A4B2B
:102E30009A4204D1496825F080031943916080F8D3
:102E40003D40002180F83C10084670BD022070BD56
:102E5000002C0140000400400008004010B50400B0
:102E600003D094F83D0010B107E0012010BD002010
:102E700084F83C00204600F01FF8022084F83D0052
:102E8000211D206801F0B6F8012084F8460084F87E
:102E90003E0084F83F0084F8400084F8410084F844
:102EA000420084F8430084F8440084F8450084F824
:102EB0003D00002010BD000008B50068B0F1804F53
:102EC00008D10548C16941F00101C161C06900F044
:102ED0000100009008BD00000010024090F83D1075
:102EE000012901D001207047022180F83D100068BF
:102EF0000B49884208D0B0F1804F05D0094988427B
:102F000002D00949884204D1816801F007010629ED
:102F100003D0016841F0010101600020704700000A
:102F2000002C0140000400400008004070B5044639
:102F300090F83C000025012817D0012684F83C6059
:102F4000022084F83D002068826822F0770222F493
:102F50007F4282600868502838D00DDC20284FD08E
:102F600005DC90B3102811D14AE0022070BD302852
:102F700046D040280AD13BE060282FD070280DD0E1
:102F8000B0F5805F03D0B0F5005F12D0012584F862
:102F90003D60002084F83C00284670BDCB68D1E934
:102FA0000121206801F062F82068816841F0770112
:102FB00009E0CB68D1E90121206801F057F82068C9
:102FC000816841F480418160E1E719E0CA6849689D
:102FD000206801F05DF85021206806E0CA68496861
:102FE000206801F066F86021206801F049F8CEE71A
:102FF000CA684968206801F04BF840212068F4E76E
:10300000226801461046F0E770B5040004D094F839
:103010004100002510B106E0012070BD84F8405049
:10302000204600F023F8242084F841002068C1687D
:1030300021F40051C160204601F074F82068016954
:1030400021F4904101612068416921F02A01416128
:103050002068C16841F40051C1606564202084F893
:10306000410084F842006563002070BD30B585B032
:103070000024009401940294039400681449884247
:1030800024D11448816941F480418161816901F44E
:1030900080410491816941F00401816180690E4D94
:1030A00000F0040004904FF40070009002200190A2
:1030B0000320039069462846FEF7BEFF2815CDE998
:1030C0000004694628460294FEF7B6FF05B030BDFD
:1030D0000038014000100240000801402DE9F8438B
:1030E000044690F84100984616460D46202802D026
:1030F0000220BDE8F88385B17EB100206064212004
:1031000084F84100FFF792F8A6848146E684A0681F
:103110002027B0F5805F02D003E00120E9E72069B5
:1031200010B12E4600250EE000260CE0802120463E
:1031300001F054F8A8B9C6B116F8010B216848602F
:10314000E08C401EE084E08C4B464FF00002CDF84E
:1031500000800028EAD14FF04001204601F03EF8FF
:1031600040B184F841700320C3E735F8020BC0F387
:103170000800E3E784F841700020BAE7FEE7016841
:103180004A69D24352050FD46FF480624A6100212C
:1031900040F8301F202242738173026942F004021A
:1031A0000261017301207047002070472DE9F84F3C
:1031B0000446C06A1E4693460D4621680A6842F4DA
:1031C00080620A60082807D0012805D010F5803FEA
:1031D00002D0206B112804D12068016841F480716D
:1031E00001604FF001195B460022494620460096D7
:1031F00000F0CCF84FF4007840B120680068C005BA
:1032000001D5C4F840800320BDE8F88F2069DFF8BD
:1032100084A0B0F5804F0FD00620216800EAD517B2
:1032200047F0F000086133465A460AF1060120468D
:1032300000F0F4F858BB03E0E8B240F001001CE0F5
:103240002168E8B2086133465A465146204600F0EC
:10325000E5F8E0B92068416981690091016841F4AD
:10326000807101605B46002249462046009600F0CE
:103270008DF80028C1D147F0F1002168086133467C
:103280005A465146204600F0C9F80028BCD001201B
:10329000BAE7000002000100F8B50446C06A1E4605
:1032A0000D461746082807D0012805D010F5803FA5
:1032B00002D0206B122804D12068016841F480718B
:1032C0000160134600224FF001112046009600F0E5
:1032D0005DF840B120680068C00502D54FF4007069
:1032E00020640320F8BD2069B0F5804F0ED0062081
:1032F000216800EAD51040F0F000086133463A46F4
:103300000B49204600F08AF878B902E005F0FE008B
:1033100000E0E8B221680861054933463A46891F52
:10332000204600F07BF80028DCD00120F8BD00002A
:103330000800010070B516460D4604461EE0204602
:10334000FFF71DFF08B1012070BD681C16D0FEF705
:103350006DFF801BA84200D885B920684069C04332
:1033600040070BD5002044F8300F20216173A07373
:10337000216941F0200121612073E4E72068406960
:10338000C0434007DBD4002070BD00002DE9F047AA
:10339000984617460D460446C1F30746DDF82090CF
:1033A0002AE000BFB8F1FF3F26D0FEF73FFFA0EBB9
:1033B0000901414502D8B8F1000F1DD12068012E46
:1033C00016D0806925EA00000004000C12D000200D
:1033D000B84211D1002044F8300F20216173A0734E
:1033E000216941F02001216120730120BDE8F087AF
:1033F0004069E7E70120EBE72068012E0AD08069E9
:1034000025EA00000004000C06D00020B842C9D014
:103410000020EBE74069F3E70120F7E72DE9F047EB
:10342000984616460D4604464FF000094FF0200A14
:10343000C1F3074723E020684069C043400515D425
:103440002068016841F40071016021686FF48060B8
:103450004861C4F8309084F83DA084F83E90216C17
:1034600041F00401216484F83C9021E0701C06D0F6
:10347000FEF7DCFEA0EB0800B04203D816B1012F26
:103480001FD021E02068012F15D0806925EA0000B7
:103490000004000C18D000BF44F8309F84F80DA041
:1034A00084F80E90216941F02001216184F80C908C
:1034B0000120BDE8F087406925EA00000004000C07
:1034C000EAD12068406901E02068806925EA0000AF
:1034D0000004000CAFD1ECE72DE9F0410025904647
:1034E0000E460446202728E04069C043C0060CD49D
:1034F00054F8301B6FF01000486144F8105967779A
:10350000A577206A2062257714E0FEF78FFEA0EBF6
:103510000800B04200D886B920684069C043400620
:103520000BD544F8305F6773A573206940F0200025
:10353000206125730120BDE8F08120684169C943FD
:103540004906D1D40020F6E770B516460D4604466C
:103550001EE02046FFF713FE08B1012070BD681C75
:1035600016D0FEF763FE801BA84200D885B92068FC
:103570004069C04300060BD5002044F8300F2021DD
:103580006173A073216941F0200121612073E4E798
:1035900020684069C0430006DBD4002070BD0000F5
:1035A0002DE9F04385B00025254800950195029549
:1035B0000395816941F004018161816901F0040191
:1035C0000491816941F0080181618069DFF87480AC
:1035D00000F008000490002201214046FEF721FE81
:1035E000DFF864904FF48077002239464846FEF7B2
:1035F00018FE0820CDE900050124694602944846DA
:10360000FEF71AFD0226CDE90246009469464046BF
:103610000194FEF711FD4FF46040CDE900056946C5
:1036200002944046FEF708FD01AA009782E8700068
:1036300069464846FEF700FD05B0BDE8F08300008E
:1036400000100240000C01400008014010B586B097
:1036500000241648009401940294039404944FF0BB
:103660008041059401603F21C0E901144FF6FF71CC
:10367000C0E903148461FFF7F1FB08B172B6FEE7FD
:103680004FF48050009069460848FFF74FFC08B19E
:1036900072B6FEE7049404A904480594FFF7AAFB58
:1036A000002801D072B6FEE706B010BD7001002000
:1036B000FEE7FEE70FB4002010B50C4A0146115496
:1036C000401CC0B22828FAD303AB28210748029A2D
:1036D000FCF71CFE05494FF47A732822A1F1B800CB
:1036E000FFF7FCFC10BC5DF814FB0000700200202A
:1036F00070B51648164EA0F12D0490F9021094F9F9
:1037000002204FF48075914217D190F9010094F98D
:103710000510884211D1FEF789FD2169401AB0F5E4
:10372000967F0AD9A07978B10022A2712946304645
:10373000FEF777FDFEF77AFD206129463046BDE8A9
:1037400070400022FEF76DBD0122EEE72D00002043
:103750000008014010B590F9004033B1641C63B219
:103760000370934200DD017010BD641E63B20370EC
:103770008B42F9DA027010BD810705D16421B0FBDC
:10378000F1F201FB120141B94FF4C871B0FBF1F243
:1037900001FB120008B100207047012070470000B3
:1037A00030B593B0344800F0A9F8334C054633A146
:1037B00094F90000009094F9013094F9022002A8D5
:1037C000FCF7BEFD94F9061094F90500CDE900015F
:1037D0002E4894F9043000EB85022DA106A8FCF7D1
:1037E000AFFD641F30A1E378A2780AA8FCF7A8FD1A
:1037F000227831A331A10EA8FCF7A2FDFEF716FD39
:10380000283CA168401AB0F57A7F33D34FF0FF31DE
:10381000606A00F04FFE184800F0BCF800210A2052
:1038200000F0A6FA0122284902A800F0F7FA0F21B9
:103830000A2000F09DFA0122234906A800F0EEFAC2
:103840001E210A2000F094FA01221F490AA800F064
:10385000E5FA2D210A2000F08BFA01221A490EA860
:1038600000F0DCFA00F0EEFA606A00F0FBFDFEF713
:10387000DDFCA06013B030BD2D0000202530326487
:103880003A253032643A253032640000D05A0008BC
:1038900025732020253032642F253032642F3230BA
:1038A000253032640000000054656D703A202564B4
:1038B0002E25642A430000002552480048756D6992
:1038C000643A2025642573004400002000B50D28CB
:1038D00012D2DFE800F011070B07090709070709F3
:1038E000070907001F2000BD1E2000BD0846FFF786
:1038F00043FF08B11D2000BD1C2000BD90F904103D
:103900008AB290F9051090F906008BB200F5FA60C2
:1039100080B2032B03D20146401E80B200E0811E1C
:103920001144C3EBC30202EB03120923B2FBF3F20F
:1039300089B211446422B0FBF2F201EB9001891AC2
:103940004FF4C872B0FBF2F008440721001D90FB51
:10395000F1F201FB1200C0B2704700000C4810B534
:103960004078082813D2DFE800F0040A0A0A0A0A9D
:103970000E0EFFF715FFBDE81040FFF7B9BEBDE81A
:10398000104000F09FB8BDE8104000F03DB810BDF9
:10399000000000207FB5044600208DF80C0064254F
:1039A000012303AAD02117480095FEF731FE072313
:1039B00001AAD02113480095FEF702FD9DF80400EE
:1039C000FEF7D1F920709DF80500FEF7CCF9607084
:1039D0009DF80600FEF7C7F9A0709DF80700FEF7F6
:1039E000C2F9E0709DF80800FEF7BDF920719DF85E
:1039F0000900FEF7B8F960719DF80A00FEF7B3F907
:103A0000A0717FBD1C0100201FB5FEF70FFC254CE7
:103A10006169401AB0F5967F43D94FF0FF31606A73
:103A200000F048FD207980B1002020711D482D3024
:103A3000FFF7B0FF94F9053094F902201AA1684607
:103A4000FCF77EFC207910B111E00120EDE76178F0
:103A50002020062902D0072909D104E08DF80100B1
:103A60008DF8000003E08DF806008DF805000021B8
:103A7000084600F07DF901220E490FA000F0CEF9B2
:103A80001E210A2000F074F901220A49684600F05C
:103A9000C5F900F0D7F9606A00F0E4FCFEF7C6FB58
:103AA00060611FBD0000002025303264203A2025CF
:103AB000303264004C000020414C41524D20434CB8
:103AC0004F434B0070B58CB0FEF7B0FB3C4CE16847
:103AD000401AB0F5967F71D94FF0FF31606A00F05F
:103AE000E9FCE07848B30020E07035482D30FFF75E
:103AF00051FF33482D30FFF701FF314D06462D357C
:103B000030A195F90000009095F9013095F9022057
:103B100006A8FCF715FC95F9061095F90500CDE906
:103B200000012C4895F9043000EB86022AA102A876
:103B3000FCF706FCE07810B126E00120D4E76178BC
:103B40002020062920D2DFE801F01F03080D1217FC
:103B50008DF819008DF8180016E08DF81C008DF80E
:103B60001B0011E08DF80E008DF80D000CE08DF8B3
:103B700011008DF8100007E08DF816008DF8150083
:103B80008DF814008DF8130000210A2000F0F0F8E1
:103B90000122174906A800F041F90F210A2000F080
:103BA000E7F80122124902A800F038F900F04AF9BA
:103BB000606A00F057FCFEF739FBE0600CB070BDA6
:103BC00000000020253032643A253032643A253036
:103BD00032640000D05A000825732020253032645A
:103BE0002F253032642F323025303264000000003F
:103BF0004400002070B5294C064620466278406A91
:103C00004FF0FF3104F12D05082A45D2DFE802F01C
:103C100044040B121D24353B00F04CFC17220021FC
:103C20003346A81C1EE000F045FC3B220021334631
:103C3000681C17E000F03EFCA9796879FFF746FEA2
:103C400042B201213346281D0CE000F033FC0C2267
:103C500001213346681D05E000F02CFC3346632249
:103C60000021A81DFFF776FD0C482D3000F018F854
:103C7000606ABDE8704000F0F5BB084817220021DB
:103C80003346801C04E005483B2200213346401D9A
:103C9000BDE87040FFF75EBD70BD00000000002071
:103CA0000EB5034600208DF804001878FEF7B9F928
:103CB0008DF805005878FEF7B4F98DF8060098786D
:103CC000FEF7AFF98DF80700D878FEF7AAF98DF85E
:103CD00008001879FEF7A5F98DF809005879FEF764
:103CE000A0F98DF80A009879FEF79BF98DF80B0082
:103CF00064200090082301AAD0210248FEF788FC26
:103D00000EBD00001C01002010B5002000F024F8BA
:103D1000BDE8104000F096B870B5802813D2402955
:103D200011D20B4B012401F007051E79AC40094B61
:103D3000C90800EBC1100EB132B101E0012A03D075
:103D4000195CA143195470BD195C2143FAE70000C6
:103D500054000020EC04002028B1FF224FF48061C1
:103D60000248FCF7CABC0022F8E70000EC0400207F
:103D7000014A108051807047540000202DE9F0471F
:103D8000814625480D46924601882A7811448029AB
:103D900005D28046408869780844402802D3002034
:103DA000BDE8F08700262AE0A9F1200101FB0060B0
:103DB0006A68002432F810701DE000BF07FA04F0B2
:103DC000000409D5B8F80210B8F8000031442044C6
:103DD00089B280B252460BE0BAF1000F1AD000222D
:103DE000B8F80210B8F800003144204489B280B21B
:103DF000FFF792FF641C2878A042DFD8761C687811
:103E0000B042D1D8B8F800102A7848461144A8F832
:103E10000010C5E70122E3E75400002070B5154605
:103E20000E46044609E02A463146FFF7A7FF2178EF
:103E3000884201D0C8B270BD641C20780028F2D13D
:103E4000C0B270BD70B5104D002400BF04F1B000C9
:103E5000C2B20021782000F08FFE002211467820A7
:103E600000F08AFE10220021782000F085FE05EB8C
:103E7000C41280234021782000F08EFE641CE4B23E
:103E8000082CE3D370BD0000EC0400200948FDF7C6
:103E900073FF08483830FDF76FFF06481C30FDF708
:103EA0006BFF04485430FDF767FF142000F0C6FA9A
:103EB000ECE700000002002088B0114D114C4FF4D7
:103EC000FA66104A01212846FDF7F8FF30B10EA02E
:103ED000FFF7F0FB304600F0B1FAF2E7E378A278A2
:103EE0000FA16846FCF72CFA227811A311A104A8AF
:103EF000FCF726FA6846FFF7DDFB04A8E8E70000B8
:103F0000000C014028000020526561642074656D3A
:103F1000702C2068756D6964206572726F72210063
:103F200054656D703A2025642E25642A430A0000EA
:103F30002552480048756D69643A20256425730A46
:103F40000000000000250C4C6E1E4FF47A7720789C
:103F500001280BD13146606A00F0ACFAFFF7D4FEBD
:103F6000FFF770FF606A00F07DFA2570FFF7F6FC3E
:103F7000384600F063FAEAE70000002010B5FEF7CB
:103F800029FC01F0D3FB012803D0BDE8104001F06B
:103F90006DB810BD30B58FB028216846FCF7B5FB71
:103FA00014210AA8FCF7B1FB02250120049000951A
:103FB0001020059000244FF46010CDE908400795CB
:103FC0006846FEF773FD08B172B6FEE70F20CDE933
:103FD0000A054FF48060CDE90C4002210AA80E9436
:103FE000FEF788FC002801D072B6FEE70FB030BDA6
:103FF00070470000F0B50268194B1A4C1A4D4FF08B
:104000008047984205D0B84203D0A04201D0A842D0
:1040100003D122F070064A683243984205D0B84274
:1040200003D0A04201D0A84203D122F44074CA6850
:1040300022434C6922F08002224302608A68C262F5
:104040000A688262984201D10969016301214161D4
:104050000169C90703D0016921F001010161F0BDC7
:10406000002C0140000400400008004010B58468A6
:1040700042EA032224F47F440A432243826010BDB3
:10408000826822F070020A4342F0070181607047A3
:1040900010B5036A046A24F001040462846924F000
:1040A000F00444EA021423F00A020A438461026223
:1040B00010BD10B5036A046A24F010040462846918
:1040C00023F0A00324F4704444EA023243EA0111CD
:1040D0008261016210BD01680C3151E8002F22F4A9
:1040E000907241E80023002BF5D10168143151E8AA
:1040F000002F22F0010241E80023002BF5D1016BD3
:10410000012909D101680C3151E8002F22F0100279
:1041100041E80023002BF5D1202180F84210002136
:104120000163704770B5044600680169E26821F4D4
:104130004051114301612169A06808436169084346
:104140002168CA6841F20C639A430243CA6020683E
:104150004169A26921F44071114341611E492068FF
:10416000884202D1FEF76CFC01E0FEF759FC00EB3F
:10417000C00101EB0012606864218000B2FBF0F323
:10418000B3FBF1F36FF018067343B2FBF0F5B2FB2B
:10419000F0F605EB8305322303EB0515B5FBF1F5CE
:1041A000B6FBF1F605F0F00505EB0615B2FBF0F6EF
:1041B000B2FBF0F0B0FBF1F06FF01802504306EBE9
:1041C000800003EB0010B0FBF1F0216800F00F005D
:1041D0002844886070BD0000003801402DE9F84394
:1041E000984617460D460446089E24E0701C22D0CF
:1041F000FEF71CF8A0EB0800B0421AD8CEB1206838
:10420000C168490717D5802D15D0402D13D00168FE
:10421000C94309070FD40168002540680090204673
:10422000FFF759FF0820606484F840500120BDE882
:10423000F8830320FBE72068006835EA000004D01B
:104240000020B842D2D00020F1E70120F9E7FEE7D4
:10425000490050EAC12018BF04204A0D18BF40F0A1
:10426000010040F2FF72B2EB515F08BF40F0020064
:10427000012808BF052070470907090E002804DB44
:1042800000F1E02080F80014704700F00F0000F10A
:10429000E02080F8141D704730380A2801D2012030
:1042A00070470020704770470649884201D10120BD
:1042B00004E004491C31884202D10020FFF79ABC77
:1042C000704700001C020020EFF30580002800D09A
:1042D000012070470449884204D1044806214170F6
:1042E0000121017070470000000200200000002042
:1042F00098B0FEF777FAFFF74DFEFFF751F9424805
:104300004049002401604149C0E901144FF480454F
:10431000C0E9034544618461C4610462FDF78CFF18
:1043200008B172B6FEE7384839495430016039495E
:10433000C0E90114C0E9034544618461C4610462B9
:10434000FDF77AFF08B172B6FEE7FFF77FF92E4856
:104350003149F03001604FF4E131C0E901140C2122
:10436000C460C0E904418461C461FEF74DFE08B138
:1043700072B6FEE72448A830FDF7D4FD274E4FF46F
:10438000005231462648FDF73FFD25482A46314672
:104390001C30FDF739FD22484FF4004231463830D9
:1043A000FDF732FD1E4808221E495430FDF72CFD52
:1043B000159415A8169400F04DF81B4C1C221B49AF
:1043C00060626846FCF767F90021684600F0A4F8CF
:1043D0001649A0611C221C3107A8FCF75CF90021DA
:1043E00007A800F099F81149E0611C2238310EA8A5
:1043F000FCF751F900210EA800F08EF8206200F0C1
:1044000024F8FEE700540040C8000020A086010008
:1044100000580040801A060000380140000C01409E
:10442000000200200008014000000020EC5A0008B3
:1044300001460020842900D0C81C704710B500B97F
:10444000012000F0B7FC002010BD10B500F04EFDBB
:10445000002010BD41684FF0010009B100F027BEF7
:1044600000F01ABE38B5002405460094FFF72CFF73
:1044700090B16946284600F06FFF012801D0FF2067
:1044800038BD009888B10A494FF080500860BFF3EA
:104490004F8FBFF36F8F08E000231A461946284656
:1044A00000F0AAFE012800D0FF24204638BD0000FD
:1044B00004ED00E038B505004FF0000000900FD08B
:1044C0000024481C0ED001B10C46FFF7FDFEB8B128
:1044D0006A460021284600F08DFF012816D104E02D
:1044E000802038BD4FF0FF34EFE7009880B10949D4
:1044F0004FF080500860BFF34F8FBFF36F8F07E01E
:104500002146284600F0C4FF012801D0FF2038BD15
:10451000002038BD04ED00E07FB50D46044641693A
:10452000B0F9080081B1A16971B1FFF781FFD4E949
:1045300005128DE80700D4E900102B46226901F02E
:10454000CAF8039004B070BDFFF772FF03A9CDE96C
:104550000001208A2B4682B2D4E9001001F08EF8C7
:10456000012801D00020EDE70398EBE72DE9F041A9
:10457000184C0F460546E6682068001D00F028FB31
:1045800038B9206890F82C100120884021698143B7
:104590002161681C07D137B12168BDE8F0410E48A0
:1045A000091D00F059BB20683544B54245602168BB
:1045B00005D2A06BBDE8F041091D00F035BB606B72
:1045C000091D00F031FBA06A854200D2A562BDE85A
:1045D000F081000060000020C80900202DE9F041B2
:1045E000054600F045FB2E4CA068401CA0602068EA
:1045F0002C4F10B1606940B32DE02560A068012800
:1046000029D1002606EB860007EB800000F0FEFAB9
:10461000761C072EF6D323488C3000F0F7FA214899
:10462000A03000F0F3FA1F48B43000F0EFFA1D4854
:10463000C83000F0EBFA1B48DC3000F0E7FA19480C
:104640008C3060631430A06305E02068E96AC06ABA
:10465000884200D82560606A401C6062E96A0120D7
:10466000226988401043206101EB810007EB800044
:10467000291D00F0F1FA00F01BFB606900280CD046
:104680002068E96AC06A884207D207494FF0805023
:104690000860BFF34F8FBFF36F8FBDE8F08100005C
:1046A00060000020EC08002004ED00E030B4026C53
:1046B0000B46002A0BD0C1681144C1608468A14236
:1046C00001D30168C16030BC1846FBF79FBF30BC06
:1046D00070472DE9F041856B174604460026026CB1
:1046E00082B1C7B1E068FBF791FFE168206C091A5D
:1046F000E1602268914202D2A168081AE060022FAC
:1047000016D017E02068A8B9A06801F083F8064623
:104710000020A0600EE06068FBF778FF216C606805
:1047200008446060A168884204D32068606001E0AA
:1047300005B16D1E6D1CA5633046BDE8F08110B556
:10474000044690F8510058B101280CD002280FD02F
:10475000502080F31188BFF34F8FBFF36F8FFEE7B8
:10476000206B00F0B9FA2046BDE8104000F0B4BA62
:1047700010BD000010484FF44061420706D0C01D34
:104780000D4920F00700411AC1F540610B4A002392
:104790000144C2E900030839183A21F00701116009
:1047A0004B600B600B1AC0E9001393604FF00040A0
:1047B0005360506170470000DC090020B400002005
:1047C000144E154CA6F1C8074FF08058DFF84C90F6
:1047D00012E000BF00F04CFAF068C568281D00F038
:1047E000F7F9A068401EA0606068401E606000F09D
:1047F0005FFA2846FFF7A3FF60680028EAD138680F
:104800000128F9D9C9F80080BFF34F8FBFF36F8F2C
:10481000F2E70000B40900206000002004ED00E091
:10482000002807D00021816001600B460A46C16064
:1048300000F0E2BC70470346009829B10260C0E96D
:104840000F31012100F094BC0060F8E72DE9F0473A
:104850009A46DDE9098481466FF00303206B03EB80
:1048600082021044089E20F00707780707D05020E6
:1048700080F31188BFF34F8FBFF36F8FFEE70025E2
:1048800061B1002023180A5C83F834200A5C12B15D
:10489000401C1028F6D384F8435001E084F83450CB
:1048A000072E00D30626E662C4E91165201D00F03C
:1048B000B8F904F1180000F0B4F92461C6F107005A
:1048C0006462A061E56484F8505052464946384617
:1048D00000F010F92060B8F1000F01D0C8F80040D6
:1048E000BDE8F08730B5114900E011460A68824200
:1048F000FBD34B685C18844203D14068184448607D
:10490000084643681C18944209D1084C183C246896
:10491000A24209D052681A4442600A6812680260D2
:10492000814200D0086030BD0460F9E7B400002087
:1049300010B5044600F09CF9A06B28B15FF00004AC
:1049400000F0B6F9204610BD0124F9E70648416B96
:10495000096829B1416BC968C968496881627047B3
:104960004FF0FF31FAE7000060000020084840687F
:10497000401C4FF0500080F3118804D0BFF34F8FDC
:10498000BFF36F8FFEE7BFF34F8FBFF36F8FFEE76D
:10499000BC0000202DE9F041044600F069F994F9CB
:1049A000455004F1240609E0606A48B1304600F041
:1049B000C3FF08B100F02CFA6D1E6DB2002DF3DCC0
:1049C0004FF0FF3684F8456000F072F900F050F9BE
:1049D00094F9445004F1100709E0206948B13846C1
:1049E00000F0AAFF08B100F013FA6D1E6DB2002DA1
:1049F000F3DC84F84460BDE8F04100F059B90000F0
:104A00002DE9F0410546002700F0A6FA324E306845
:104A100008B9FFF7AFFE706905424ED1C5B308353E
:104A200068070ED005F00700C0F1080005446807CC
:104A300007D0502080F31188BFF34F8FBFF36F8FE3
:104A4000FEE72DB37068854237D8234818300146F9
:104A50000C6801E020460C466168A94202D2216838
:104A60000029F7D131688C4227D00768216801609E
:104A700060680837411B10290FD96019420708D018
:104A8000502080F31188BFF34F8FBFF36F8FFEE785
:104A900013E041606560FFF725FF61687068401AA8
:104AA0007060B268904200D2B0607069014300202B
:104AB000C4E90001F068401CF06000F077FF78075F
:104AC00007D0502080F31188BFF34F8FBFF36F8F53
:104AD000FEE73846BDE8F0819C00002004490868E4
:104AE00018B10868826C521C826408687047000024
:104AF0006000002010B5031F4FF080741C601B1F66
:104B000021F001011960191F024B0B601439403864
:104B10000A6010BD6D49000870B5154988420ED174
:104B2000144C00256078082809D2DFE800F004065C
:104B3000090B0D0F1113012000E00220607070BD01
:104B40000320FBE70420F9E70520F7E7657070BD57
:104B50000720F3E74FF0FF363146606AFFF7AAFC03
:104B6000FFF7D2F83146606AFFF7A4FCEEE70000D9
:104B700000020020000000201CB502238DF8041064
:104B80000A2100918DF80520014601AA0148FDF790
:104B90003FFD1CBDC800002070B5C2B000248DF8D8
:104BA000041001A904E0155D0E19641C7570E4B2CF
:104BB0009C42F8D30A2100915B1C01469BB201AADA
:104BC0000248FDF725FD42B070BD0000C80000207E
:104BD000D0E9013201699A60D0E901235A604A683C
:104BE000824201D182684A60002202610868401E48
:104BF0000860086870470000034B036003F154002D
:104C000008608020106070479802002000F10801C1
:104C10004FF0FF32C0E90112C16001610021016063
:104C2000704700210161704730B50B685A1C02D0F3
:104C300000F1080202E0026904E022465468256897
:104C40009D42FAD953684B6099608A60516008614F
:104C50000168491C016030BD42684A6093688B60FE
:104C600093685960916008610168491C0160704750
:104C7000502080F31188BFF34F8FBFF36F8F0A4925
:104C80004868401C486001280CD10848006810F0B2
:104C9000FF0F07D0502080F31188BFF34F8FBFF371
:104CA0006F8FFEE770470000BC00002004ED00E0BD
:104CB0000849486828B1401E486001D180F3118836
:104CC0007047502080F31188BFF34F8FBFF36F8F71
:104CD000FEE70000BC00002070B500282AD0164D69
:104CE000A0F1080460686969084207D1502080F388
:104CF0001188BFF34F8FBFF36F8FFEE722683AB181
:104D0000502080F31188BFF34F8FBFF36F8FFEE702
:104D10008843606000F020F9606869680844686052
:104D20002046FFF7DFFD2869401C2861BDE8704080
:104D300000F03CBE70BD00009C0000204FF0E02061
:104D400000210161816105494FF47A720968B1FB64
:104D5000F2F1491E416107210161704740000020C6
:104D600010B5FBF7AFFA114910280ED300F1E0207F
:104D700090F8F0030A78904207D2502080F311880F
:104D8000BFF34F8FBFF36F8FFEE709480068896854
:104D900000F4E060884207D9502080F31188BFF307
:104DA0004F8FBFF36F8FFEE710BD0000BC000020E7
:104DB0000CED00E010B5020014D00F48006B38B1C4
:104DC000502080F31188BFF34F8FBFF36F8FFEE742
:104DD00000F0C2F800211046FFF7C8FB00F0E6FD26
:104DE000002807D105494FF080500860BFF34F8F6E
:104DF000BFF36F8F10BD00006000002004ED00E0E5
:104E000002490A6A0260C968416070476000002078
:104E100001490120C86170476000002010B50C46B0
:104E200050B1094909681831FFF7FEFE2046BDE878
:104E300010400121FFF79ABB502080F31188BFF387
:104E40004F8FBFF36F8FFEE76000002070B5040046
:104E500047D0A26CA2B1606C884200D30146E06AE0
:104E600088423ED0012A3CD11E4D2A6894420FD17F
:104E7000502080F31188BFF34F8FBFF36F8FFEE791
:104E8000502080F31188BFF34F8FBFF36F8FFEE781
:104E9000E162A269002A02DBC1F10701A161124EA1
:104EA00000EB8000616906EB8000814219D1201D72
:104EB000FFF78EFE012130B994F82C002A6901FA1F
:104EC00000F082432A61E06A2A6981401143296126
:104ED00000EB800006EB8000211DBDE87040FFF76D
:104EE000BBBE70BD60000020EC08002010B586B08D
:104EF0000024039405AA04A903A80494FFF77CFEE8
:104F0000DDE903010094CDE9011000230EA1104852
:104F1000059A00F0E0FB0F490028C86211D050202C
:104F200080F31188BFF34F8FBFF36F8F4FF0FF30C7
:104F3000886201204861CC6006B0BDE8104000F0F6
:104F400041B806B010BD000049444C4500000000C7
:104F5000C1470008600000200248016B491C016342
:104F600070470000600000201448016B11B101215E
:104F7000C16170470021C1610169B1FA81F1C1F1DC
:104F80001F0101EB81020E4951F822306BB101EB98
:104F9000820101F108034A6852684A609A4201D1CD
:104FA00052684A60D16801607047502080F31188D0
:104FB000BFF34F8FBFF36F8FFEE70000600000204C
:104FC000EC0800201CB5264908780190FF200870E5
:104FD00008788DF800009DF800009DF8002000F092
:104FE000F000904207D0502080F31188BFF34F8F1C
:104FF000BFF36F8FFEE79DF800001A4C00F05000E1
:1050000020700720A06005E09DF8002052008DF878
:105010000020401E9DF800201206F5D4A060032851
:1050200007D0502080F31188BFF34F8FBFF36F8FED
:10503000FEE74FF44070A060019808700A480168CC
:1050400041F470010160016841F070410160FFF7B7
:1050500075FE00206060FBF7FFF800201CBD00001B
:1050600000E400E0BC00002020ED00E010B550207E
:1050700080F31188BFF34F8FBFF36F8F00F064FB95
:1050800018B104494FF080500860002080F3118867
:1050900010BD000004ED00E010B502460021012023
:1050A00000F012F80446FFF7BBFB204610BD38B5F0
:1050B0000B46002200901146012000F026F804461D
:1050C000FFF7AEFB204638BDF8B517460E46050083
:1050D00013D005FB06F04830FFF792FC04000AD01D
:1050E000002084F8460004F148023B463146284639
:1050F0000094FFF7A0FB2046F8BD502080F31188F4
:10510000BFF34F8FBFF36F8FFEE738B5049D18B123
:1051100053B1CAB181B120E0502080F31188BFF3B0
:105120004F8FBFF36F8FFEE7502080F31188BFF3DE
:105130004F8FBFF36F8FFEE7502080F31188BFF3CE
:105140004F8FBFF36F8FFEE739B1502080F3118886
:10515000BFF34F8FBFF36F8FFEE748241C46012338
:1051600084F846302B460094FFF765FB204638BD97
:1051700070B50D46040025D0FFF77AFDD4E90F2065
:10518000216802FB0011A1600021A1632168616018
:105190000A46D4E90F01401E00FB0121E1602146CF
:1051A0004FF0FF3001F8440F487004F110008DB14A
:1051B000FFF72CFD04F12400FFF728FDFFF778FD31
:1051C000012070BD502080F31188BFF34F8FBFF3D3
:1051D0006F8FFEE721690029F0D000F0ADFB0028B9
:1051E000ECD004494FF080500860BFF34F8FBFF3FD
:1051F0006F8FE3E704ED00E02DE9FF4782B01D4625
:105200008A464FF00008040003D0BAF1000F08D01E
:1052100011E0502080F31188BFF34F8FBFF36F8FE1
:10522000FEE7206C38B1502080F31188BFF34F8F18
:10523000BFF36F8FFEE7022D0AD1E06B012807D084
:10524000502080F31188BFF34F8FBFF36F8FFEE7BD
:1052500000F06CFA3F4F4FF000094FF0805648B90C
:10526000049838B1502080F31188BFF34F8FBFF3FB
:105270006F8FFEE7FFF7FCFCA06BE16B884207D362
:10528000022D05D00498D0B1B8F1000F1AD01EE05D
:105290002A4651462046FFF71CFA616A19B104F10B
:1052A000240000F049FB20B13E60BFF34F8FBFF3F5
:1052B0006F8FFFF7FDFC012006B0BDE8F087FFF718
:1052C000F7FC22E06846FFF79BFD4FF00108FFF76F
:1052D000EFFCFFF741FEFFF7CBFC94F94400401CC4
:1052E00001D184F8449094F94500401C01D184F820
:1052F0004590FFF7DDFC04A9684600F085F930B160
:105300002046FFF747FB00F051FB0020D4E7FFF7F2
:10531000AFFCA06BE16B884213D1FFF7C9FC04F12D
:1053200010000499FFF77AFD2046FFF733FB00F0E9
:105330003DFB00289ED13E60BFF34F8FBFF36F8FC0
:1053400098E7FFF7B5FC2046FFF724FB00F02EFBA3
:1053500090E7000004ED00E070B50E46040009D0AF
:10536000206C78B1502080F31188BFF34F8FBFF3CA
:105370006F8FFEE7502080F31188BFF34F8FBFF38C
:105380006F8FFEE7206848B9A06838B1502080F3DD
:105390001188BFF34F8FBFF36F8FFEE7FFF7E0FC7D
:1053A0005020EFF3118580F31188BFF34F8FBFF3C7
:1053B0006F8FA16BE06B884218D994F94500491CA6
:1053C000A163411C04D0401C84F8450001200EE07C
:1053D000606A0028FAD004F1240000F0ADFA002839
:1053E000F4D0002EF2D001203060EFE7002085F3EA
:1053F000118870BD2DE9F04790468946040003D01E
:10540000B9F1000F08D011E0502080F31188BFF3EC
:105410004F8FBFF36F8FFEE7206C38B1502080F3C1
:105420001188BFF34F8FBFF36F8FFEE7FFF798FC34
:105430005020EFF3118680F31188BFF34F8FBFF335
:105440006F8FA76BF7B194F9445049462046FFF798
:105450002DF97F1EA763681C04D06D1C84F844508E
:10546000012010E020690028FAD004F1100000F0BB
:1054700063FA0028F4D0B8F1000FF1D00121C8F888
:105480000010EDE7002086F31188BDE8F0870000EA
:105490002DE9F343002683B00400354609D0206C83
:1054A00078B1502080F31188BFF34F8FBFF36F8F17
:1054B000FEE7502080F31188BFF34F8FBFF36F8F4B
:1054C000FEE700F033F9DFF83C814FF000094FF0C0
:1054D000805748B9049838B1502080F31188BFF341
:1054E0004F8FBFF36F8FFEE7FFF7C2FBA06BC8B112
:1054F000401EA063206810B9FFF7F0FAA060206991
:1055000050B104F1100000F017FA28B1C8F800708B
:10551000BFF34F8FBFF36F8FFFF7CAFB012005B0BA
:10552000BDE8F083049808B166B10FE03DB15020AA
:1055300080F31188BFF34F8FBFF36F8FFEE7FFF744
:10554000B7FB5DE06846FFF75BFC0126FFF7B0FBA9
:10555000FFF702FDFFF78CFB94F94400401C01D1DA
:1055600084F8449094F94500401C01D184F845909A
:10557000FFF79EFB04A9684600F046F80028204685
:1055800012D0FFF707FA00F011FA2046FFF7D0F922
:105590000028A9D09DB3FFF76BFB606A50B3206B66
:1055A0000068C0F1070126E0FFF7C2F9E0B120680A
:1055B00038B9FFF75DFBA06800F078F90546FFF702
:1055C00077FB04F124000499FFF728FC2046FFF73D
:1055D000E1F900F0EBF9002886D1C8F80070BFF3BC
:1055E0004F8FBFF36F8F7FE72046FFF7D3F900F0AF
:1055F000DDF979E70021A068FFF728FC9FE7FFE7C6
:1056000000208CE704ED00E02DE9F0410C46050098
:1056100011D0C4B1FFF72CFB174BDA686E68206815
:10562000911B471C17D02F681B6A9F4219D09642C6
:1056300017D8012410E0502080F31188BFF34F8F5A
:10564000BFF36F8FFEE7502080F31188BFF34F8FB9
:10565000BFF36F8FFEE70024FFF72AFB2046BDE86B
:10566000F081884205D9401A20602846FFF7C8FB20
:10567000F1E700202060DCE7600000202DE9FF5FFB
:105680008346DDE90E87994616468A469000FFF765
:10569000B7F905001CD05420FFF7B2F9040014D06C
:1056A0000020256384F85100CDE90240CDE9008750
:1056B0004B46324651465846FFF7C8F82046FEF79B
:1056C0008DFF012004B0BDE8F09F2846FFF704FBE2
:1056D0004FF0FF30F6E7F0B585B0DDE90B640A9DC9
:1056E000A6B1DCB1542700972663022684F85160E6
:1056F000002604AFCDE90246CDE90057FFF7A6F832
:105700002046FEF76BFF049805B0F0BD502080F3F3
:105710001188BFF34F8FBFF36F8FFEE7502080F3E8
:105720001188BFF34F8FBFF36F8FFEE705484169C4
:1057300019B1006B18B1002070470120704702209A
:1057400070470000600000202DE9F0412F4C00263A
:10575000206B28B1A069401CA0613046BDE8F081F3
:10576000E5686D1CE56013D1606B006838B15020AE
:1057700080F31188BFF34F8FBFF36F8FFEE7606B2D
:10578000A16B6163A063206A401C2062FFF7DEF812
:10579000A06ADFF87C80854209D3606B0068A0B105
:1057A000606BC068C7687868854211D2A0622068C3
:1057B000C06A00EB800158F82100012800D90126B9
:1057C000E0690028C9D00126C7E74FF0FF30EDE7B8
:1057D000381DFFF7FDF9B86A18B107F11800FFF797
:1057E000F7F9F96A0120226988401043206101EB32
:1057F000810108EB8100391DFFF72EFAF86A216854
:10580000C96A8842C9D30126C7E7000060000020AA
:10581000EC08002070B504004FF0000140D0214D8D
:105820002868844207D0502080F31188BFF34F8F3F
:10583000BFF36F8FFEE7A06C38B1401EA064636CAD
:10584000E26A9A422CD040B12AE0502080F31188BD
:10585000BFF34F8FBFF36F8FFEE7201DFFF7B8F93F
:10586000114A012150B9E06A00EB800352F823305D
:1058700023B92B6901FA00F083432B61606CE0626D
:10588000C0F10700A061E06A2B69814019432961DA
:1058900000EB800002EB8000211DFFF7DDF9012104
:1058A000084670BD60000020EC08002070B50400C0
:1058B0004FF0000034D01E4DE16A2A68D26A91424E
:1058C0002FD2A069002804DB2868C06AC0F1070055
:1058D000A061184E01EB8101606906EB81018842ED
:1058E0001AD1201DFFF774F9012130B994F82C006A
:1058F0002A6901FA00F082432A612868C06AE062DE
:105900002A6981401143296100EB800006EB800089
:10591000211DFFF7A1F902E02868C06AE0620120BA
:1059200070BD616C2A68D26A9142F8D370BD0000E4
:1059300060000020EC0800202DE9F041C068C46838
:10594000ACB104F118000746FFF742F9154D286B7A
:105950000126A0B139461448FFF77EF9E06A2968AC
:10596000C96A88421CD90120EE61BDE8F08150204F
:1059700080F31188BFF34F8FBFF36F8FFEE7201DB9
:10598000FFF726F9E16A2A6906FA01F01043286157
:1059900001EB81000449B43901EB8000211DDBE7F4
:1059A0000020E2E760000020A00900202DE9F04778
:1059B0002C4D00242746286B38B1FFF759F9286B86
:1059C000401E2863286B40B146E0502080F31188C8
:1059D000BFF34F8FBFF36F8FFEE7A968224E012000
:1059E000D1B3A6F1B40980463068E8B1F068C46864
:1059F00004F11800FFF7ECF8201DFFF7E9F8E06A62
:105A00002A6908FA00F11143296100EB800109EBD2
:105A10008100211DFFF720F9E06A2968C96A8842E0
:105A2000E2D3C5F81C80DFE70CB1FEF78FFFAC694D
:105A300044B14646FFF788FE00B1EE61641EF9D11D
:105A40000020A861E86938B10849012738070860D3
:105A5000BFF34F8FBFF36F8FFFF72AF93846BDE8CA
:105A6000F087000060000020A009002004ED00E0A5
:105A700010B500290AD00878002807D005487844D6
:105A8000FBF762FD002801D0002010BD02487844D9
:105A900010BD0000FA160000F216000010B5002933
:105AA0000AD00878002807D005487844FBF74CFD59
:105AB000002801D0002010BD0248784410BD00002D
:105AC000EA160000E2160000FBF762B9FBF796BA8F
:105AD00053554E004D4F4E00545545005745440018
