:020000040800F2
:10000000401C0020CD020008BF380008293300083A
:10001000BD380008471E00086744000800000000C3
:100020000000000000000000000000003502000891
:1000300061200008000000007902000895410008D6
:10004000E7020008E7020008E7020008E7020008EC
:10005000E7020008E7020008E7020008E7020008DC
:10006000E7020008E7020008E7020008E7020008CC
:10007000E7020008E7020008E7020008E7020008BC
:10008000E7020008E7020008E7020008E7020008AC
:10009000E7020008E7020008E7020008E70200089C
:1000A000E7020008E7020008E7020008E70200088C
:1000B000E7020008E7020008E7020008E70200087C
:1000C000E7020008E7020008E7020008E70200086C
:1000D000E7020008E7020008E7020008E70200085C
:1000E000E7020008E7020008E702000800F002F853
:1000F00000F090F80AA090E8000C82448344AAF132
:100100000107DA4501D100F085F8AFF2090EBAE82F
:100110000F0013F0010F18BFFB1A43F0010318473B
:100120005072000070720000103A24BF78C878C185
:10013000FAD8520724BF30C830C144BF04680C60ED
:10014000704700000023002400250026103A28BF35
:1001500078C1FBD8520728BF30C148BF0B60704739
:100160006E2900F0D083702900F0CB81662905F05C
:10017000B785652905F0B485672905F0B185612942
:1001800005F0B08503681B0A28BF41F0800169298A
:1001900000F03C81642900F03981752900F0368136
:1001A0006F2900F0BE84782900F09781E92900F0DA
:1001B0005984E42900F05684F52900F05384EF298E
:1001C00000F0BB84F82900F096810368DB0928BFA2
:1001D00041F08001632900F0DA83732900F0DF83A6
:1001E000E32901F0B380F32901F0B88000207047C3
:1001F0001FB501F005F904000020002105F05AFDAB
:10020000401C60600020002105F03EFDE0601FBD45
:1002100010B510BD01F0C6F81146FFF7E9FF04F074
:1002200073F901F0A3F903B4FFF7F2FF03BC01F087
:10023000EBF90000224B19680868B0E8F00F80F372
:100240000988BFF36F8F4FF0000080F311884EF0E4
:100250000D0E70470000000006480068006880F33B
:10026000088862B661B6BFF34F8FBFF36F8F00DFB0
:1002700000BF00BF08ED00E0EFF30980BFF36F8F10
:100280000F4B1A6820E9F00F106008B54FF05000CE
:1002900080F31188BFF34F8FBFF36F8F04F070FFAF
:1002A0004FF0000080F31188BDE808401968086825
:1002B000B0E8F00F80F30988BFF36F8F704700BF7D
:1002C00060000020EFF30580704700000948804778
:1002D00009480047FEE7FEE7FEE7FEE7FEE7FEE728
:1002E000FEE7FEE7FEE7FEE704480549054A064B40
:1002F0007047000009420008ED0000084016002089
:10030000401C002040180020401800207CB51D46ED
:1003100016460C00009001D02044401E074B7B4441
:100320002A4669460190304600F007FB05461CB19D
:100330000020694600F014FB28467CBD49060000F9
:100340000FB41CB5084B06AA7B446946009005987B
:1003500000F0F3FA04460020694600F001FB204655
:100360001CBC5DF814FB00001506000070B50446C7
:1003700085690068C10601D5302600E02026C00747
:1003800007D070BDD4E9012130469047206A401C57
:1003900020626D1EF6D570BD70B504468569007883
:1003A000C00707D170BDD4E9012120209047206A01
:1003B000401C20626D1EF6D570BD70B50C4605461A
:1003C000012A05D02878800600D5EA69002302E0DA
:1003D000012305E05B1C934202D2E05C0028F9D1C6
:1003E000A869E618C01AA861286A18442862284635
:1003F000FFF7BCFF04E0D5E9012114F8010B904799
:10040000B442F8D32846FFF7C7FF70BD2DE9F0418D
:100410000646002410687529314616A510D000F054
:1004200007FA002802DA404213A507E031688A077C
:1004300001D512A502E0490704D511A5012401E068
:1004400000F0FFF900210A2206F1240709E0B0FBC1
:10045000F2FCB0FBF2F302FB1C003030785418467B
:10046000491C0028F3D123462A463046BDE8F04116
:1004700000F0F0B9000000002D0000002B0000008B
:1004800020000000F0B40D460188090502D5214C7A
:100490007C4402E01F4C7C440E34002100F1240611
:1004A00008E002F00F071209E75D42EA03721B0938
:1004B0007754491C52EA0307F3D10278002312074C
:1004C00004D5702D06D009B1022311342246F0BCA8
:1004D00000F0C0B901231034F8E770B504460D46AA
:1004E0002146106800F0ADF9024629462046BDE8D5
:1004F00070400023C6E7D21D22F00703D3E9002392
:10050000C0E70368126843F0200303600823C36157
:100510000023B7E7B66D00002DE9F05F8946044679
:100520004FF0000ADFF874B1FB44C0F820A0204669
:10053000E1688847002874D0252806D0D4E9012135
:100540009047206A401C2062F1E700265F46204663
:10055000E16888472028054607DB312D05D2781948
:1005600010F8200C08B10643F1E7B00701D526F0DA
:100570000406C4F81CA00027C4F818A02A2D09D02E
:10058000284603F095FF38B304EB8708303DC8F8E0
:10059000185019E059F8041B204604EB87029161BA
:1005A000E1688847012F054618D1E069002820DA64
:1005B00026F020061DE0D8F8180000EB800005EBBF
:1005C00040003038C8F818002046E16888470546E2
:1005D00003F06EFF0028EED1012F0AD02E2D08D196
:1005E0002046E16888477F1C0546022F46F020061A
:1005F000C4DBA069002803DA404246F00106A0618E
:10060000F00701D026F010066C2D0BD0682D09D014
:100610004C2D39D06A2D35D0742D35D07A2D33D06C
:1006200016E038E0E1682F4620468847B842054684
:1006300009D16C2F26D04FF48060E1680643204634
:100640008847054604E06C2F1AD04FF480700643AB
:100650000DB3A5F14100192802D8203546F40066F3
:100660004A462946204626604E46FFF779FD80B16E
:1006700001280BD0F61D26F0070000F1080956E707
:100680004020E4E78020D8E70020D6E706F10409FF
:100690004DE7284652E7206ABDE8F09F466D00000E
:1006A00010B5431C02E010F8011B71B18107FAD1AB
:1006B0004FF0013202C88C1A8C4314EAC211F9D0EF
:1006C000C01A0A0603D0C01E10BDC01A10BD0A040D
:1006D00001D0801E10BD0902FCD0401E10BD032AAF
:1006E00040F2308010F0030C00F0158011F8013B4F
:1006F000BCF1020F624498BF11F801CB00F8013B36
:1007000038BF11F8013BA2F1040298BF00F801CBF9
:1007100038BF00F8013B11F0030300F02580083AD0
:10072000C0F0088051F8043B083A51F804CBA0E827
:100730000810F5E7121D5CBF51F8043B40F8043B7C
:10074000AFF30080D20724BF11F8013B11F801CBB1
:1007500048BF11F8012B24BF00F8013B00F801CB82
:1007600048BF00F8012B704710B5203AC0F00B804D
:10077000B1E81850203AA0E81850B1E81850A0E8A5
:100780001850BFF4F5AF5FEA027C24BFB1E81850FF
:10079000A0E8185044BF18C918C0BDE810405FEA6F
:1007A000827C24BF51F8043B40F8043B08BF7047EB
:1007B000D20728BF31F8023B48BF11F8012B28BFF0
:1007C00020F8023B48BF00F8012B704702F0FF03FE
:1007D00043EA032242EA024200F0BCB94FF00002B1
:1007E00000B5134694469646203922BFA0E80C5027
:1007F000A0E80C50B1F12001BFF4F7AF090728BF02
:10080000A0E80C5048BF0CC05DF804EB890028BF7D
:1008100040F8042B08BF704748BF20F8022B11F0A6
:10082000804F18BF00F8012B704770477047704722
:1008300009684A0501D540B27047C905FCD500B228
:10084000704709684A0501D5C0B27047C905FCD593
:1008500080B270472DE9F0470D469946924604460E
:1008600000F124080168880604D5E06921F0100130
:10087000216000E00120A84201DD471B00E00027C5
:10088000A1697A1902EB0900081AA0612078C00654
:1008900002D42046FFF76AFD002608E0D4E90121D2
:1008A0001AF806009047206A401C761C20624E45CC
:1008B000F4DB2078C0060AD52046FFF757FD06E096
:1008C000D4E9012130209047206A401C2062381E64
:1008D000A7F10107F4DC07E0D4E9012118F80500CD
:1008E0009047206A401C2062281EA5F10105F3DC18
:1008F0002046FFF751FD2078000602D50220BDE812
:10090000F0870120FBE711680268006A530501D5F2
:1009100008700AE0D30501D5088006E0130603D568
:10092000C217C1E9000200E0086001207047000022
:1009300001694A1C02610878704700B58FB0CDE9A3
:1009400001310021059105497944CDE90310114693
:100950006846FFF7E1FD0FB000BD0000E5FFFFFFB7
:100960000A6802F8010B0A607047D1E900239A4235
:1009700002D2531C0B601070704710B5436913B15D
:10098000AFF3008001E0FFF718FD012010BD1278E1
:1009900000F124010A7000224A700122EDE711687B
:1009A0004FF0FF32E9E700002DE9FF5F15468A4668
:1009B0000446DFF8AC80F8440027D8E900103E4632
:1009C000CDE9001010E03AF816106A4602A800F0CF
:1009D000C9FC411C07D02178890603D5E269391882
:1009E00091420DD80744761C2078800602D5E06934
:1009F000B84205DDAE42E6DB3AF816000028E2D147
:100A0000A069C01BA0612046FFF7B0FCD8E9001028
:100A1000CDE90010002017E03AF818106A4602A845
:100A200000F0A0FCB0F1FF3F81460BD000250DF196
:100A3000080B05E0D4E901211BF8050090476D1C67
:100A40004D45F7D308F10100B0428046E4DB206A4F
:100A5000384420622046FFF79FFCBDE8FF9F00005E
:100A6000CA6800002DE9F0418046D21D22F007023D
:100A70000025D2E90002F52915A614D0011E72F155
:100A8000000106DA0023D0EB030063EB020211A69B
:100A900008E0D8F800108B0701D50FA602E049073F
:100AA00001D50EA601251146002408F1240704E013
:100AB00000F070F830323A55641C50EA0102F7D168
:100AC0002B46324621464046BDE8F041FFF7C2BE04
:100AD000000000002D0000002B000000200000009E
:100AE00030B4002100F1240408E002F00705D20828
:100AF000303542EA4372DB086554491C52EA03056B
:100B0000F3D10468002310A2250707D5A40600D45A
:100B100021B1C46901230DA2641EC46130BCFFF77A
:100B200099BE10B5044621461068FFF78AFE0246BA
:100B30002046BDE810400023D2E7D21D22F0070175
:100B4000D1E90023CCE700000000000030000000E5
:100B50004FF000020429C0F0128010F0030C3FF4A3
:100B60003FAECCF1040CBCF1020F18BF00F8012B12
:100B7000A8BF20F8022BA1EB0C01FFF731BE5FEA02
:100B8000C17C24BF00F8012B00F8012B48BF00F8FE
:100B9000012B704730B5B0F10A024FEA900E71F1A7
:100BA00000034EEA817EB0EB0E0061EB91014FEA4B
:100BB000101E4EEA017E10EB0E0041EB11114FEAC0
:100BC000102E4EEA016E10EB0E0041EB11214FEAA0
:100BD000104E4EEA014E10EB0E0041EB1141401851
:100BE00041F100014FEAD00040EA41704FEAD101E3
:100BF00010EB80054FEA810444EA907444EB010451
:100C00006D1944EB0404521BA3414FF0000348BF8D
:100C10000A3200D530BD401C41F1000130BD7047A3
:100C20002DE9FF4F0C461E464FF0FF378BB0D2E93F
:100C30000001DDF860800A908A46C1F30A5505B9C3
:100C40003D46002108464FF00000BAF1000F00F4C5
:100C5000400005DA00EB80004FF4400101EA50004B
:100C60004FEA9059B9F1010F00DDB9460A9850EAF0
:100C70004A000ED044F61050A5F2FF3545432F141C
:100C8000B8F1000F1ED07542291E1EDDC9F1000209
:100C90001CE0B8F1010F4FF0000001D0302103E05B
:100CA000F24305E02154401CB042FBDB30460022F9
:100CB000002121540B99C1F80880C1E900200FB030
:100CC000BDE8F08FBD1B6D1CDEE74A4600DA6942C5
:100CD00006A800F0D9FB06AB93E8070003AB83E856
:100CE000070050460A9900F096FC8DE80700A0F531
:100CF00000501F3800900398002D0ADD42F21F01BA
:100D00004A460844002303A90390684600F0FFFE0A
:100D100009E0A0F500504A461F38002303A90390BC
:100D2000684600F009FF8DE807000004000C03D0BE
:100D30004FF0FF30410800E01046B8F1000F03D03B
:100D40000022009215461EE0751E05D4FFF722FF13
:100D5000303262556D1EF9D5B3460122084302D0E8
:100D600000227F1C04E02078302801D100227F1E61
:100D7000002A099784D01DE0112D07DAFFF70AFF3A
:100D8000303262556D1C50EA0102F5D1084302D0A1
:100D90000098C8B10EE00021681E05E0235C625C8B
:100DA00063542254401E491C8142F7DBAB46A81B0A
:100DB000401E0990002004F80B000B98099AC0F817
:100DC0000880C0E9002B7AE711264FF0000857E7AA
:100DD0002DE9F04F88460446D21D22F0070191B05C
:100DE000D1E90001CDE90A0103F03EFB02460B9870
:100DF000C00F01D02D2007E02068810701D52B20EE
:100E000002E0202101EAC000032A099001D0072A4C
:100E100005DB03464146204600F0F6FA0BE1207858
:100E2000800601D5E06900E00620B8F1650F814633
:100E300006D0B8F1660F18D0B8F1670F70D131E065
:100E40000020B9F1110F009001DB112301E009F13D
:100E500001030AAA01A90CA8FFF7E2FEDDE90C7064
:100E6000002609F10105834647E001204B4600902A
:100E70004FF000470AAA01A90CA8FFF7D1FEDDE94F
:100E80000DB00C995D46002610B909F101000D184E
:100E9000B9EB050003D4C0F1FF3609F10105A5EB5C
:100EA00009002BE0B9F1010F01DA4FF00109002030
:100EB000B9F1110F0090484601DD112300E003460F
:100EC0000AAA01A90CA8FFF7ABFEDDE90C704D469C
:100ED00000268346207800070AD4AB4500DA5D4639
:100EE00001A8012D04DD411911F8011C302907D09A
:100EF0004F4502DA17F1040F04DA012082460FE0B1
:100F00006D1EEEE7002F02DCED1B3E4403E0781C73
:100F1000A84200DD7D1CB81B00F1010A4FF000471C
:100F20002078000703D4AA4501DB4FF0FF3A0021E7
:100F3000B7F1004F0DF143088DF8431024D0022083
:100F40002B23002F01DA7F422D230A21021EA0F15C
:100F5000010000DC5FB197FBF1FC97FBF1F201FBB4
:100F60001C7C17460CF1300C08F801CDEEE7A8F117
:100F7000010003702188090501D5452100E06521A4
:100F8000A0F1010800F8011C09980FA9A1EB0807BE
:100F9000FF1D00B10120411901EBEA70A16938443D
:100FA000081A401EA0612078C00602D42046FFF730
:100FB000DDF9099828B1D4E901219047206A401C45
:100FC00020622078C00622D52046FFF7CFF91EE028
:100FD000002E04DBB34502DD01A8805D00E0302077
:100FE000D4E901219047206A401C2062761CAAF1B6
:100FF00001005FEA000A0AD100F002FAC068016845
:10100000405CD4E901219047206A401C2062281EE0
:10101000A5F10105DCDC07E0D4E9012118F8010B9A
:101020009047206A401C2062381EA7F10107F3DCBC
:101030002046FFF7B1F9032011B041E62DE9F04F4A
:1010400004460D46D21D22F0070089B0D0E9009772
:101050004846394603F008FA0246F80F01D02D231E
:1010600007E02068810701D52B2302E0202101EA57
:10107000C0038DF820300BB1012000E00020032ACE
:10108000824601D0072A04DB2946204600F0BCF93D
:101090003FE12078800601D40D2500E0E569C7F323
:1010A0000A560D2D49DA00214FEA175B08464FF02A
:1010B0000000002F00F4400007DA00EB80004FF43E
:1010C000400100EBD07001EA60008115012901DDCB
:1010D0004FF0FF3100224FEA850CBCF1180F06D308
:1010E0001346ACF118004FF08052C24003E04FF4B9
:1010F000801323FA0CF30CF10C0CBCF1200F04D379
:10110000ACF1200C09FA0CF001E007FA0CF0002910
:101110004FF0004801DD18B90FE00ED140450CD367
:1011200019EB02095F4121B9404502D19F4329EAE9
:101130000209BBEB175F00D0761C2088000502D5A2
:101140007B48784402E07A487844193808AA30236A
:1011500002F80A30037C0AF10101002E0AF1020AAA
:1011600053546A4602DC4FF0300101E04FF0310188
:101170004FF001088DF8001002D0A6F2FF3603E010
:1011800059EA470100D06B4E002D02DC2178090797
:1011900004D54FF002082E218DF80110C44600211D
:1011A0000BE0C7F303433F01C35C491C6D1E02F80B
:1011B0000830052908F1010801DA002DF1DC0021D1
:1011C0000CE000EB1973491C1B786D1E082902F80E
:1011D00008304FEA091908F1010801DA002DF0DCA6
:1011E00021688B0602D516E0A8F10108E04505DD6F
:1011F00002EB080313F8013C302BF5D0B8F1000FD7
:1012000009DD02EB080313F8013C2E2B03D109077B
:1012100001D4A8F10108002D05DD3E2102F80810D7
:101220006D1E08F10108407C002E02F8080008F14C
:10123000010804DA2D20764202F8080002E02B2093
:1012400002F808000A214FF47A70864208F101087A
:101250000BDB96FBF0F3303302F8083096FBF0F32B
:1012600008F1010800FB136601E0642E0CDB64202A
:1012700096FBF0F3303302F8083096FBF0F308F1F8
:10128000010800FB136601E00A2E06DB96FBF1F075
:10129000303002F8080008F1010896FBF1F001FB7C
:1012A0001060303002F80800A16908F1010808EB6D
:1012B000050202EB0A00081AA0612078C00602D4D9
:1012C0002046FFF753F8216A08AE01EB0A002062BE
:1012D00004E0D4E9012116F8010B9047BAF1010AA4
:1012E000F7D22078C00602D52046FFF73FF86E46B9
:1012F00009E016F8010B3E280FD0D4E901219047F0
:10130000206A401C2062B8F10108F2D22046FFF7A3
:1013100043F809B00320BDE8F08F206A284420621A
:1013200003E0D4E90121302090476D1EEBD3F8E7AC
:101330005961000002FCFFFF10B5436913B1AFF320
:10134000008001E0FFF730FB012010BD128800F1A2
:10135000240182840022C2840122EDE711684FF04B
:10136000FF32E9E770B516460C46054600F040F836
:10137000036893F80101012806D0FF2C0FD8185DEF
:1013800068B101202C7070BDD3F8070132462146A8
:1013900003F2071303442846BDE8704018474FF096
:1013A000FF3070BD754600F0EBF8AE4605006946AB
:1013B000534620F00700854618B020B5FEF794FF8D
:1013C000BDE820404FF000064FF000074FF0000846
:1013D0004FF0000B21F00701AC46ACE8C009ACE8C7
:1013E000C009ACE8C009ACE8C0098D4670470000F0
:1013F00010B500F005F8001D10BD00BFB948000091
:1014000000487047FC1500202DE9F0411F460446B6
:1014100003260168072A01F4006004DB08B116A561
:1014200005E016A503E008B115A500E015A521F01B
:1014300010002060A069C01EA0610FB1401EA06115
:101440002046FEF793FF4FB1D4E90121384690477B
:10145000206A401C2062C01C206206E0206AFAE775
:10146000D4E9012115F8010B9047761EF8D22046E9
:10147000FEF792FFBDE8F0814E414E006E616E00B6
:10148000494E4600696E66002DE9F04781461646D2
:101490008AB0354878440DC88DE80D00324878444C
:1014A000801C03AC0DC884E80D0041F69B30084455
:1014B000372190FBF1F290FBF1F5A5F1800501FBDE
:1014C00012041B3C02D56442012000E00020DFF83A
:1014D00098A080460027FA44AAF1BE0A0EE0E00771
:1014E0000AD03246684607EB470101230AEB810127
:1014F00000F022FB8DE8070064107F1C002CEED169
:10150000194F7F44AE3F19E0E80715D007EB0410F0
:101510000DF1180A90E80E008AE80E00C068F0424B
:1015200001D1981908903246012306A903A800F0BA
:1015300003FB03AB83E807006D10641C002DE3D1AF
:101540004FF0010332466946B8F1000F03A802D0FC
:1015500000F0DDFA01E000F0EFFAC9E90001C9F896
:1015600008200AB0BDE8F087985E000010B5044678
:10157000AFF300802046BDE81040FEF754BE0000E7
:1015800000487047DC1500204FF0013C50F8042B58
:1015900051F8043B9A4221D1A2EB0C03934313EA86
:1015A000CC1317D150F8042B51F8043B9A4215D1B3
:1015B000A2EB0C03934313EACC130BD150F8042B8A
:1015C00051F8043B9A4209D1A2EB0C03934313EA6E
:1015D000CC13DBD04FF00000704700BFD01A01BA27
:1015E000B1FA81F101F0180122FA01F0CB40C1F10A
:1015F0002001DBB2C0B2C01A2CFA01F3D11A914318
:1016000011EAC311E6D1704701491820ABBEFEE7CD
:101610002600020070475FEA400C08BF91F0000FFF
:101620004FEA8C234FEAC12243EA51514FEA1C5042
:1016300018BF00F5F0404FEA300018BF41F00041FC
:101640005FEA6C5C00F02980BCF1FF3F08BF40F00E
:1016500080407047130C06BF12044FF0100C4FF07F
:10166000000C130E04BF12020CF1080C130F04BF80
:1016700012010CF1040C930F04BF92000CF1020C48
:10168000D30F04BF52000CF1010C11464FF00002C1
:10169000A0F11F00A0EB0C00704711F0004F08BF35
:1016A000704731F000413FF4D5AF0B0C06BF090481
:1016B0004FF0100C4FF0000C0B0E04BF09020CF1A0
:1016C000080C0B0F04BF09010CF1040C8B0F04BFB5
:1016D00089000CF1020CCB0F04BF49000CF1010C86
:1016E000CCF12003A0EB0C0022FA03F302FA0CF277
:1016F00041EA030100F10100704720F07F4C80EACD
:10170000030023F07F47ACEB070303F57C5300F0A5
:10171000004003F1FF032DE980494FEA154B09B45E
:101720004FEA144325EA0B4E24EA03480FF204263D
:1017300006EB132749083E785FEA320203FB06678F
:10174000C7F5000707FB06F64FEA54374FEAD646BF
:1017500006F1020607FB066CCCF1005C4FEA1C4761
:101760002CEA074C07FB06F40CFB06F504EB1546C8
:101770004FEA961634BF00204FF000404FEAD137B1
:1017800006FB07FC4FEA1C4C0CFB0BF7D21B03FBC0
:101790000CF761EB07010CFB0EF7B0EB074072EBA7
:1017A00017420CFB08F734BFA2EB0742B2EB07422B
:1017B00061EB17414FEA0C444FEA910706FB07FC27
:1017C0004FEA1C4C0CFB0BF7B0EBC74072EB5732E7
:1017D00003FB0CF734BFA2EBC742B2EBC74261EB8D
:1017E00057310CFB0EF7B0EBC70072EB57720CFBD6
:1017F00008F734BFA2EBC702B2EBC70261EB577127
:10180000039F4FEA816141EA921104EBCC044FEA55
:10181000D1374FEA826206FB07FC42EA90124FEA98
:1018200080604FEA1C4C0CFB0BF7D21B03FB0CF740
:1018300061EB07010CFB0EF7B0EB074072EB1742B0
:101840000CFB08F734BFA2EB0742B2EB074261EB97
:1018500017414FEA8C554FEA910704EB9C2406FB95
:1018600007FC4FEA1C4C0CFB0BF7B0EBC74072EBCC
:10187000573203FB0CF734BFA2EBC742B2EBC742AF
:1018800061EB57310CFB0EF7B0EBC70072EB5772F0
:101890000CFB08F734BFA2EBC702B2EBC70261EB47
:1018A000577115EB4C254FEA816141EA92114FEADD
:1018B00082624FEAD13742EA901206FB07FC44F1FC
:1018C00000044FEA80604FEA1C4C0CFB0BF7D21B64
:1018D00003FB0CF761EB07010CFB0EF7B0EB0740C5
:1018E00072EB17420CFB08F734BFA2EB0742B2EBD6
:1018F000074261EB174115EB1C154FEA813141EAB4
:1019000092414FEA823242EA90424FEA80304FEAF7
:101910000C7644F1000448EA03434EEA0B484FF0CA
:10192000000EB2EB080C71EB030724BF6246394688
:101930004EEB0E0E4FF0000B0018524149414BEB9D
:101940000B0BB2EB080C71EB03077BF1000B24BF10
:10195000624639464EEB0E0E4FF0000B0018524116
:1019600049414BEB0B0BB2EB080C71EB03077BF11E
:10197000000B24BF624639464EEB0E0E51EA0207B9
:1019800018BF46F0010616EB0E7655F1000254F131
:10199000000103D5BDE88901BDE80088BDE88901E3
:1019A000BDE80048B619524141EB0101A3F1010322
:1019B000704780807F7E7D7C7B7A797877767675BC
:1019C0007473727171706F6E6E6D6C6C6B6A6A6934
:1019D0006868676666656464636362616160605FCE
:1019E0005F5E5E5D5D5C5C5B5B5A5A595958585747
:1019F00057565655555554545353525252515150AF
:101A000050504F4F4F4E4E4D4D4D4C4C4C4B4B4B01
:101A10004A4A4A4949494848484747474746464647
:101A20004545454444444443434343424242424182
:101A30004141002B9C4630D477002BD01CB54FEA97
:101A4000370703B44FF010004FF01001BAF1000F48
:101A500006D0BCF1000FDCBF40F0080040F00801E8
:101A60004FF000000FBCBDE810400BF1010BBBF1C3
:101A7000010F08BF5FEA170722BF12F1010211F13F
:101A800001014FF0004143F1000300F0004043EA40
:101A900000007047F9D35708D0E746EA064613F12D
:101AA000400F4FEA16461FDD13F1200FDFBF16432C
:101AB0000A46002120335B42BED0C3F1200746EA2C
:101AC000064602FA07F74FEA164646EA0706C3F14A
:101AD000200722FA03F201FA07F721FA03F14FF087
:101AE000000342EA0702A7E746EA020646EA06467C
:101AF0004FEA164646EA0106BCBF46EA0646360CE1
:101B00004FF000034FF000024FF0000194E72DE981
:101B1000804C9A46934670B491E8380007C831EA81
:101B2000400C48BF34EA430C03D5FFF7E6FDFFF74E
:101B300080FFF0BCBDE8008C2DE9804C9A469346AE
:101B400070B491E8380007C810F0804F08BF13F058
:101B5000804F03D100F005F8FFF76BFFF0BCBDE844
:101B6000008C20F07F4780EA030023F07F4C07EBD6
:101B70000C03A3F57C5300F00040A3F1FE0392F0A8
:101B8000000F00F0B38095F0000F00F077802DE992
:101B900001494FEA11404FEA144621EA004800FB90
:101BA00006FC24EA064708FB06F607FB08F800FBDC
:101BB00007F718EB06484CEB164C4FEA124B18EBA4
:101BC00007484FEA15464CEB174022EA0B4E0BFB39
:101BD00006FC25EA06470EFB06F607FB0EFE0BFB8E
:101BE00007F71EEB064E4CEB164C4FF000061EEBB3
:101BF000074E4CEB174B18EB0B0840F1000018EBAD
:101C00000E0B58EB000840F100008F1A4FF0000156
:101C10003CBFC943661B14BFB5EB040C00213CBF9D
:101C2000C943F61B4FEA17444EEA8E0E27EA0445D5
:101C30004FEA1C4704FB07622CEA074C05FB07F739
:101C40000CFB05F604FB0CFC16EB074642EB1742B7
:101C500016EB0C4642EB1C421BEB060658EB02024D
:101C6000414146EA9E0601D5BDE80189B6195241B7
:101C700041EB0101A3F10103BDE801894FEA1445DD
:101C80004FEA114724EA054621EA074C05FB07F411
:101C900006FB07F70CFB06F105FB0CFC11EB0741FB
:101CA00044EB17444FEA124711EB0C4144EB1C4440
:101CB00022EA074C05FB07F206FB07F70CFB06F6CA
:101CC00005FB0CFC16EB074642EB174216EB0C46E5
:101CD00042EB1C456A1854F1000148BF7047B61921
:101CE000524141EB0101A3F10103704795F0000F50
:101CF00037D04FEA11424FEA144721EA024624EA5C
:101D0000074C02FB07F106FB07F70CFB06F402FB8E
:101D10000CFC14EB074441EB17414FEA154714EB59
:101D20000C4441EB1C4125EA074C02FB07F506FB7E
:101D300007F70CFB06F602FB0CFC16EB074645EB1F
:101D4000174516EB0C4645EB1C42121951F10001E8
:101D500048BF7047B619524141EB0101A3F101039D
:101D600070474FEA14454FEA114724EA054621EA35
:101D7000074C05FB07F106FB07F70CFB06F24FF0DB
:101D8000000605FB0CFC12EB074241EB174112EB7E
:101D90000C4251EB1C4148BF7047921841EB0101C6
:101DA000A3F10103704700F00F01000900EB800070
:101DB00001EB4000C0B2704770B50446018B40692A
:101DC00000F04AFAE1780126814204D0E0702671E1
:101DD00000F04CFAA0602079002540B100F046FAEE
:101DE000A168401A0F2802D3E078607025716078EE
:101DF000A17888420FD0F0B100F038FAE168401ABB
:101E0000B0F57A7F02D8204602F092FF02F057FB2D
:101E100025746078A070207C00280BD000F026FA92
:101E2000E168401A40F6B831884203D3204602F0F8
:101E30005DFB257470BD2674204602F041FB00F066
:101E400015FAE060E5E7FEE701234370C370837095
:101E500041610283704770B5054600244FF47A76DD
:101E600004E0304600F006F8641CA4B2AC42F8D39B
:101E700070BD0000054909680A68516A89B2536A51
:101E80005B1A9BB28342FAD3704700005C000020CB
:101E90001FB50022CDE90012012102910221039118
:101EA000694600F0E9F81FBD1FB5009101210191BD
:101EB000029102210391694600F0DEF81FBD70B562
:101EC00005460C462820FFF7D5FF2146284600F09E
:101ED000C3F988B9642300222146284600F0A0F8FF
:101EE000002809DB642301222146284600F098F8E7
:101EF000002801DB012070BDFF2070BD70B51446C5
:101F00000D46064600F06BF829463046FFF7D7FF2E
:101F1000012801D0FF2070BD2946304600F034F87A
:101F200020702946304600F02FF860702946304670
:101F300000F02AF8A0702946304600F025F8E0703D
:101F40002946304600F020F8207121786278E37845
:101F50001144A2781A441144814201D0FE2070BD80
:101F6000002070BD10B5074C3F21206041604FF646
:101F7000FF71C16001F048F82068BDE8104001F031
:101F800083B800005C0000202DE9F04100240E46DB
:101F900007462546642300223146384600F040F8C3
:101FA000002814DB2820FFF765FF6006040E314689
:101FB000384600F051F9012801D144F001046423AE
:101FC00001223146384600F02BF8002802DAFF20C3
:101FD000BDE8F0816D1C082DDCDB2046F8E770B50C
:101FE0000C460546FFF760FF01222146284600F017
:101FF00038F900222146284600F033F91420FFF773
:102000002AFF01222146284600F02BF91420FFF771
:1020100031FF21462846BDE87040FFF739BF000078
:102020002DE9F0470D4C81461F462068164688462C
:102030000068456A0AE020680068406A401B80B278
:10204000B84203D94FF0FF30BDE8F087414648461B
:1020500000F002F9B042EED00020F5E75C0000206D
:1020600070470A21B0FBF1F201FB1202B0FBF1F064
:1020700042EA0010C0B270472DE9F84FDFF8B8917E
:102080000024A9F1040B23460F2709F1040AABF140
:10209000040EC9E00125A5402A40AA427DD1674E21
:1020A000D1F804C0ACEB0608B44532D014DCBCF166
:1020B000030F3AD009DCBCF1000F2AD0BCF1010FAC
:1020C0001CD0BCF1020F31D11DE0BCF1110F17D0B3
:1020D000BCF1120F2AD119E0B8F5881F19D006DC1F
:1020E000B8F5803F15D0B8F5801F1FD111E0B8F5C5
:1020F000001F0ED0B8F5041F18D10AE0CB6815E018
:10210000CB681B1D12E0CB6808330FE0CB680C33A3
:102110000CE08B682BB1012B4FF0080303D0456115
:1021200004E0042302E0056100E00023FF2A01D857
:10213000064601E000F104064FEA840501D9A5F145
:102140002005D6F8008007FA05FC28EA0C0803FAF7
:1021500005F548EA0508C6F800804D68ED0062D52F
:10216000374DAE6946F00106AE61AD6924F0030655
:1021700005F001050095334D06EB050CDCF8085021
:10218000A607360F07FA06F825EA0805DFF8B88033
:10219000404503D14FF0000817E044E0DFF8AC8081
:1021A000404502D14FF001080FE0DFF8A480404520
:1021B00002D14FF0020808E0DFF89880404502D1D4
:1021C0004FF0030801E04FF0040808FA06F848EA67
:1021D0000508CCF808804D68D9F80060ED024D463E
:1021E00001D5164300E096432E604D68DAF8006092
:1021F000AD02554601D5164300E096432E604D686A
:10220000DBF80060AD035D4601D5164300E0964360
:102210002E604D68DEF80060ED03754601D516436B
:1022200000E096432E60641C0D682A46E5407FF46A
:1022300031AFBDE8F88F0000080401400000111024
:10224000001002400000014000080140000C014065
:1022500000100140001401408068084000D00120B7
:1022600070470AB1016170470904FBE701488068C3
:10227000704700003400002070B5040025D094F8A9
:102280003D00002520B984F83C50204600F02CFB8E
:10229000242084F83D002068016821F001010160DC
:1022A0002068016841F4004101602068016821F460
:1022B0000041016000F08AFC4D4A6168914201D8FA
:1022C0004C4900E04C49884201D2012070BD4B4985
:1022D0002368B0FBF1F15E6826F03F060E435E60B6
:1022E0006368934206D94FF4967359434FF47A7357
:1022F000B1FBF3F12368491C1E6A26F03F06314307
:1023000019626168914210D84900401EB0FBF1F299
:10231000521CC2F30B02042A01D2042022E0B0FBBB
:10232000F1F0401CC0F30B001CE0A268F2B301EB1B
:10233000C10303EB0116431EB3FBF6F35B1C43F42E
:1023400080431B0549D092B301EBC10202EB01119E
:10235000401EB0FBF1F0401CC0F30B0040F4804085
:1023600040F400402168CA694CF6FF739A43104359
:10237000C861D4E9071001432068026822F0C00256
:1023800011430160D4E9030101432068826848F2E7
:10239000FF339A4311438160D4E905010843216862
:1023A000CA6822F0FF021043C86001E00EE016E0A8
:1023B0002068016841F0010101602564202084F853
:1023C0003D00256384F83E50002070BD01EB4106BE
:1023D000431EB3FBF6F35B1CB3E70120C2E701EB3E
:1023E0004101401EB0FBF1F0401CC0F30B00B7E709
:1023F000A086010080841E0000093D0040420F00BD
:102400002DE9FF4F81B089460446FFF72FFF0546AF
:1024100094F83D004FF0000820287DD119230122B7
:1024200050492046009501F0B7F8002874D194F87F
:102430003C00012870D0012084F83C00206801682D
:10244000C90703D1016841F00101016020680168FA
:1024500021F400610160242084F83D0000262664F8
:102460004148E0624FF0011B20272068016841F4D9
:10247000807101600095002259462046049B01F0BE
:102480008BF850B120680068C00502D54FF4007089
:102490002064032005B0BDE8F08F216809F0FE003C
:1024A0000861FFF7E3FE2168054648694969C0F302
:1024B0004000C1F380214FF0A00A0FE0FFF7D6FEE5
:1024C000411B0498814200D808B984F83DA02168D6
:1024D00048694969C0F34000C1F3802194F83D2068
:1024E000A02A02D008B90029E8D084F83D702068FD
:1024F0004169C943890716D4016841F4007101603C
:1025000020684169806919230122164920460095F7
:1025100001F042F8B8B900E021E084F83D7084F899
:102520003C600020B6E7016841F400710160216859
:102530006FF480604861192301220A492046009502
:1025400001F02AF808B10120A4E7039808F1010876
:1025500080458AD384F83D7084F83C60F3E702201C
:1025600098E70000020010000000FFFF2DE9F84F7F
:102570000025DDF82890984617468A4604460095BF
:10258000FFF774FE064694F83D0020287AD11923FF
:10259000012286492046009600F0FEFF0028F5D172
:1025A00094F83C0001286DD0012084F83C0020689C
:1025B0000168C90703D1016841F001010160206889
:1025C000016821F400610160222084F83D001020A0
:1025D00084F83E0025646762A4F82A80608D208517
:1025E0007348E06233464A465146204600F0B4FE46
:1025F00000287CD1208DDFF8BC81202768B101281C
:1026000014D00228206801681ED041F48061016066
:102610002068416980690090BBE020684169816958
:102620000091016841F400710160B2E02068016826
:1026300021F48061016072B620684169816900916E
:10264000016841F400710AE041F40061016072B672
:102650002068416981690091016821F4806101600D
:1026600062B696E0032865D801280CD002284B46B4
:102670004FF000024146204600960BD000F08CFF40
:10268000A8BB0CE090E032464946204601F02AF80B
:1026900068BB71E000F080FF48BB72B633E0206891
:1026A000016821F48061016072B620680069616A86
:1026B0000870606A401C6062208D401E2085608D1D
:1026C000401E60853C4846F2A8110068B0FBF1F05E
:1026D000C0EBC00000EB80000090401E009007D0CF
:1026E00020684069C04340070DD50098F5E727E012
:1026F00044F8305F6773A573206940F020002061C3
:1027000062B625731CE02068016841F40071016025
:1027100020680069616A0870606A401C6062218DEF
:10272000491E2185618D491E618562B6216809694E
:10273000017025E032464946204600F0D3FF10B133
:102740000120BDE8F88F20680069616A0870606A3E
:10275000401C6062208D401E81B22185608D401E2C
:10276000608520684269D243520712D4032903D1FD
:10277000016821F48061016020680069616A087065
:10278000606A401C6062208D401E2085608D401E66
:102790006085208D00287FF465AF84F83D7084F853
:1027A0003E5084F83C50CCE70220CAE702001000FB
:1027B0000000FFFF04000100400000202DE9F84F59
:1027C0001F4690468A460446DDF82890FFF74EFDE6
:1027D000054694F83D0020287FD119230122404965
:1027E0002046009500F0D8FE002876D194F83C00F1
:1027F000012872D0012084F83C0020680168C907D4
:1028000003D1016841F0010101602068016821F4F1
:1028100000610160212084F83D00102084F83E0012
:1028200000262664C4F824806785608D20852D48A5
:10283000E0622B464A465146204600F003FE90B91E
:10284000206841698069009036E02A464946204662
:1028500000F080FF50B1206C042804D1206801688A
:1028600041F4007101600120BDE8F88F606A2168C1
:1028700000780861606A401C6062618D491E618554
:10288000218D491E89B2218522685369DB435B078C
:102890000BD451B100781061606A401C6062608D99
:1028A000401E6085208D401E20852A4649462046D0
:1028B00000F046FE0028CED1208D0028C5D154F866
:1028C0003D0B016841F400710160202004F81E09ED
:1028D000E67766770020C7E7FFE70220C4E700003D
:1028E000020010000000FFFF30B585B0002100910C
:1028F0000191029103911E4D03681E4C1221032287
:102900001D48AB4216D1A36943F00803A361A36934
:10291000039203F008030493C023CDE90031694614
:10292000FFF7AAFBE06940F40010E061E06900F401
:10293000001019E0114DAB4217D1A36943F0080311
:10294000A361A369039203F0080304934FF4406367
:10295000CDE900316946FFF78FFBE06940F4800064
:10296000E061E06900F48000049005B030BD000033
:102970000054004000100240000C0140005800408C
:102980000248816802781144816070473400002059
:10299000074810B5016841F010010160032000F004
:1029A0006DF80F2000F006F800F024F8002010BDAC
:1029B0000020024070B50D4D04464FF47A7128781E
:1029C000B1FBF0F00A490968B1FBF0F000F0D4FA6D
:1029D00048B9102C07D200222146501E00F02EF8D4
:1029E00000206C6070BD012070BD0000340000202C
:1029F000400000200F4808B5816941F00101816164
:102A0000816901F001010091C16941F08051C1610A
:102A1000C069002200F0805000900F21901E00F04D
:102A20000DF80548416821F0E06141F00071416016
:102A300008BD00000010024000000140F0B40E4B41
:102A40001B680C46C3F30223C3F10705042D00D90C
:102A50000425191D072901D2002300E0DB1E0126F1
:102A600006FA05F1491E214099409E40761E164007
:102A70003143F0BC01F00CBD0CED00E0064900F064
:102A8000070208684FF6FF03184040EA0220034A95
:102A900010430860704700000CED00E00000FA05EC
:102AA0002DE9F0470F46050061D0434E306800F035
:102AB0000700B84209D2306820F007003843306080
:102AC000306800F00700B84251D128683B4C8107BC
:102AD00012D5400703D5606840F4E0606060287854
:102AE000000703D5606840F4605060606068A968C2
:102AF00020F0F000084360602878C00728D068689C
:102B0000012810D02168022810D0890700292EDA68
:102B1000616821F0030101436160FFF7A7FB804674
:102B200041F288390DE021688903EFE78901EDE77B
:102B3000FFF79CFBA0EB0801494502D90320BDE843
:102B4000F0876068696800F00C00B0EB810FEFD18E
:102B5000306800F00700B8420BD9306820F0070059
:102B600038433060306800F00700B84201D00120DF
:102B7000E5E72878400705D56068E96820F4E0605B
:102B8000084360602878000706D56068296920F44A
:102B9000605040EAC100606000F038F86168084A9F
:102BA000C1F30311515CC84006490860064800683B
:102BB000FFF700FF0020C2E70020024000100240A3
:102BC0006A5D0008400000203800002004480549E4
:102BD00000684968044AC1F30221515CC84070474B
:102BE00040000020001002407A5D000804480549BA
:102BF00000684968044AC1F3C221515CC84070476B
:102C000040000020001002407A5D00080E4A516822
:102C10000E4801F00C03042B11D0082B0FD10C48E7
:102C2000C1F38343C903C05C0AD55168084AC1F3A4
:102C30004041921E515C054A5043B0FBF1F0704791
:102C400004494843704700000010024000127A0017
:102C50005A5D000800093D002DE9F84F040070D0CE
:102C60002078C04DC00749D06868C0F381000128B2
:102C700007D06868C0F38100022809D16868C003E2
:102C800006D52868800339D560680028E7D035E08C
:102C90006068B0F5803F0BD010B1B0F5A02F11D017
:102CA000286820F480302860286820F4802002E022
:102CB000286840F480302860606890B1FFF7D6FA49
:102CC00006460AE0286840F480202860F0E700BF4C
:102CD000FFF7CCFA801B642873D828688003F7D5E7
:102CE0000CE0FFF7C3FA064605E000BFFFF7BEFAA7
:102CF000801B6428F0D828688003F7D420789A4E87
:102D000080074FF001094FF0000839D5686810F0CE
:102D10000C0F07D06868C0F38100022809D16868E9
:102D2000C00306D42868800714D52069012808D17B
:102D300010E02069B0B1C6F80090FFF797FA074697
:102D400005E00AE1FFF792FAC01B0228C4D8286800
:102D50008007F7D52868616920F0F80040EAC100D3
:102D600028600DE0C6F80080FFF780FA074604E00F
:102D7000FFF77CFAC01B022823D828688007F7D405
:102D8000207800072CD57948A169D9B1C0F8009006
:102D9000FFF76CFA074604E0FFF768FAC01B022849
:102DA0000FD8686A8007F7D571484FF4FA51006868
:102DB000B0FBF1F0009000BF0098411E0091FAD2E4
:102DC0000EE080E0C0F80080FFF750FA074604E00C
:102DD000FFF74CFAC01B022875D8686A8007F7D441
:102DE0002078400760D5E8690027C00008D4E8696A
:102DF00040F08050E861E869012700F080500090C1
:102E00005C480168C90513D40168834641F48071A8
:102E10000160FFF72BFA824606E000BFFFF726FAB3
:102E2000A0EB0A0064284ED8DBF80000C005F5D5F9
:102E3000E06801280AD008B1052813D0286A20F0DC
:102E400001002862286A20F0040002E0286A40F0AD
:102E500001002862E06841F2883B98B1FFF706FA6A
:102E600082460BE0286A40F004002862EEE700BFCB
:102E7000FFF7FCF9A0EB0A0159455AD8286A8007E8
:102E8000F6D50CE0FFF7F2F9824605E0FFF7EEF920
:102E9000A0EB0A0159454CD8286A8007F6D41FB127
:102EA000E86920F08050E861E06988B36968C1F39F
:102EB0008101022944D00228C6F8608004D0FFF7BF
:102EC000D5F9044638E034E0FFF7D0F9074604E0CE
:102ED000FFF7CCF9C01B02282BD828688001F7D453
:102EE000206AB0F5803F05D16868A16820F4003001
:102EF00008436860D4E908010843696821F4741143
:102F000008436860C6F86090FFF7B0F9044606E031
:102F100025E000BFFFF7AAF9001B022809D828689E
:102F20008001F7D51BE000BFFFF7A0F9001B0228C6
:102F300002D90320BDE8F88F28688001F4D40EE0A0
:102F40000128F7D06868226A00F48031914204D1E8
:102F5000616A00F47010884201D00120EAE7002085
:102F6000E8E70000001002400000424280044242B4
:102F7000400000200070004010B5401EB0F1807F7E
:102F800001D3012010BD4FF0E02460610F216017D4
:102F900001F07EFA0020A06107202061002010BD12
:102FA00070B590F83C20012A26D0012480F83C40DE
:102FB000022280F83D2003685A689D6822F070065E
:102FC0000A6832435A600D4B02689A4208D0B2F147
:102FD000804F05D00A4B9A4202D00A4B9A4204D144
:102FE000496825F080031943916080F83D40002135
:102FF00080F83C10084670BD022070BD002C0140D6
:10300000000400400008004010B5040003D094F80C
:103010003D0010B107E0012010BD002084F83C0005
:10302000204600F01FF8022084F83D00211D206892
:1030300001F0ECF8012084F8460084F83E0084F8A2
:103040003F0084F8400084F8410084F8420084F88E
:10305000430084F8440084F8450084F83D000020D3
:1030600010BD000008B50068B0F1804F08D10548D8
:10307000C16941F00101C161C06900F00100009027
:1030800008BD00000010024090F83D10012901D059
:1030900001207047022180F83D1000680B498842EA
:1030A00008D0B0F1804F05D00949884202D00949C3
:1030B000884204D1816801F00701062903D0016824
:1030C00041F001010160002070470000002C014028
:1030D000000400400008004070B5044690F83C0031
:1030E0000025012817D0012684F83C60022084F8CE
:1030F0003D002068826822F0770222F47F428260DD
:103100000868502838D00DDC20284FD005DC90B35B
:10311000102811D14AE0022070BD302846D0402846
:103120000AD13BE060282FD070280DD0B0F5805F29
:1031300003D0B0F5005F12D0012584F83D60002077
:1031400084F83C00284670BDCB68D1E90121206895
:1031500001F098F82068816841F0770109E0CB68B8
:10316000D1E90121206801F08DF82068816841F4DF
:1031700080418160E1E719E0CA684968206801F090
:1031800093F85021206806E0CA684968206801F079
:103190009CF86021206801F07FF8CEE7CA68496892
:1031A000206801F081F840212068F4E72268014698
:1031B0001046F0E770B5040004D094F841000025F3
:1031C00010B106E0012070BD84F84050204600F0A8
:1031D00023F8242084F841002068C16821F40051BC
:1031E000C160204601F0AAF82068016921F49041ED
:1031F00001612068416921F02A0141612068C168AC
:1032000041F40051C1606564202084F8410084F8D5
:1032100042006563002070BD30B585B00024009485
:1032200001940294039400681449884224D11448FC
:10323000816941F480418161816901F48041049197
:10324000816941F00401816180690E4D00F0040044
:1032500004904FF40070009002200190032003902E
:1032600069462846FEF708FF2815CDE9000469469F
:1032700028460294FEF700FF05B030BD003801403B
:1032800000100240000801402DE9F843044690F880
:103290004100984616460D46202802D00220BDE87F
:1032A000F88385B17EB100206064212084F841005C
:1032B000FEF7DCFFA6848146E684A0682027B0F5EF
:1032C000805F02D003E00120E9E7206910B12E46BB
:1032D00000250EE000260CE08021204601F08AF84F
:1032E000A8B9C6B116F8010B21684860E08C401EF1
:1032F000E084E08C4B464FF00002CDF800800028BF
:10330000EAD14FF04001204601F074F840B184F852
:1033100041700320C3E735F8020BC0F30800E3E770
:1033200084F841700020BAE7FEE701684A69D24399
:1033300052050FD46FF480624A61002140F8301FBB
:10334000202242738173026942F004020261017318
:1033500001207047002070472DE9F84F0446C06AED
:103360001E4693460D4621680A6842F480620A6050
:10337000082807D0012805D010F5803F02D0206B27
:10338000112804D12068016841F4807101604FF078
:1033900001195B46002249462046009600F0FCF8E1
:1033A0004FF4007840B120680068C00501D5C4F82A
:1033B00040800320BDE8F88F2069DFF884A0B0F5D5
:1033C000804F0FD00620216800EAD51747F0F000A3
:1033D000086133465A460AF10601204600F024F9F6
:1033E00058BB03E0E8B240F001001CE02168E8B2FD
:1033F000086133465A465146204600F015F9E0B9B7
:103400002068416981690091016841F4807101601F
:103410005B46002249462046009600F0BDF8002891
:10342000C1D147F0F1002168086133465A46514640
:10343000204600F0F9F80028BCD00120BAE70000CF
:1034400002000100F8B50446C06A1E460D46174644
:10345000082807D0012805D010F5803F02D0206B46
:10346000122804D12068016841F48071016013467C
:1034700000224FF001112046009600F08DF840B177
:1034800020680068C00502D54FF400702064032056
:10349000F8BD2069B0F5804F0ED00620216800EA03
:1034A000D51040F0F000086133463A460B492046FB
:1034B00000F0BAF878B902E005F0FE0000E0E8B2EA
:1034C00021680861054933463A46891F204600F0C5
:1034D000ABF80028DCD00120F8BD00000800010096
:1034E00030B591B00546012461000A230122284627
:1034F000FEF786FF68B9224609A16846FCF720FF5F
:103500006846FDF7CDF882B2642369460B48FFF7A1
:10351000BBFE641CE4B27F2CE6D311B030BD0000CA
:103520004932432064657669636520666F756E6411
:1035300020617420307825580D0A0000B801002061
:1035400070B516460D4604461EE02046FFF7EDFE18
:1035500008B1012070BD681C16D0FEF787FE801BE5
:10356000A84200D885B920684069C04340070BD500
:10357000002044F8300F20216173A073216941F0CD
:10358000200121612073E4E720684069C0434007BF
:10359000DBD4002070BD00002DE9F04798461746A7
:1035A0000D460446C1F30746DDF820902AE000BF2F
:1035B000B8F1FF3F26D0FEF759FEA0EB09014145C7
:1035C00002D8B8F1000F1DD12068012E16D08069F5
:1035D00025EA00000004000C12D00020B84211D1EE
:1035E000002044F8300F20216173A073216941F05D
:1035F0002001216120730120BDE8F0874069E7E7E1
:103600000120EBE72068012E0AD0806925EA00003E
:103610000004000C06D00020B842C9D00020EBE71F
:103620004069F3E70120F7E72DE9F0479846164691
:103630000D4604464FF000094FF0200AC1F307473A
:1036400023E020684069C043400515D42068016824
:1036500041F40071016021686FF480604861C4F832
:10366000309084F83DA084F83E90216C41F0040134
:10367000216484F83C9021E0701C06D0FEF7F6FD32
:10368000A0EB0800B04203D816B1012F1FD021E0F3
:103690002068012F15D0806925EA00000004000C85
:1036A00018D000BF44F8309F84F80DA084F80E9025
:1036B000216941F02001216184F80C900120BDE8CE
:1036C000F087406925EA00000004000CEAD1206878
:1036D000406901E02068806925EA00000004000CD0
:1036E000AFD1ECE72DE9F041002590460E460446A7
:1036F000202728E04069C043C0060CD454F8301B92
:103700006FF01000486144F810596777A577206A78
:103710002062257714E0FEF7A9FDA0EB0800B04277
:1037200000D886B920684069C04340060BD544F8EC
:10373000305F6773A573206940F020002061257316
:103740000120BDE8F08120684169C9434906D1D410
:103750000020F6E770B516460D4604461EE02046EA
:10376000FFF7E3FD08B1012070BD681C16D0FEF71D
:103770007DFD801BA84200D885B920684069C04300
:1037800000060BD5002044F8300F20216173A07390
:10379000216941F0200121612073E4E7206840693C
:1037A000C0430006DBD4002070BD00002DE9F043CB
:1037B00085B00025254800950195029503958169FE
:1037C00041F004018161816901F004010491816982
:1037D00041F0080181618069DFF8748000F0080021
:1037E0000490002201214046FEF73BFDDFF8649083
:1037F0004FF48077002239464846FEF732FD082014
:10380000CDE900050124694602944846FEF734FCE0
:103810000226CDE902460094694640460194FEF72F
:103820002BFC4FF46040CDE9000569460294404608
:10383000FEF722FC01AA009782E87000694648461C
:10384000FEF71AFC05B0BDE8F0830000001002404E
:10385000000C01400008014010B586B00024164855
:10386000009401940294039404944FF080410594D1
:1038700001603F21C0E901144FF6FF71C0E9031454
:103880008461FFF7C1FB08B172B6FEE74FF48050C8
:10389000009069460848FFF71FFC08B172B6FEE7C2
:1038A000049404A904480594FFF77AFB002801D08A
:1038B00072B6FEE706B010BD70010020FEE7FEE71D
:1038C0000FB4002010B50C4A01461154401CC0B280
:1038D0002828FAD303AB28210748029AFCF716FDE3
:1038E00005494FF47A732822A1F1B800FFF7CCFC08
:1038F00010BC5DF814FB00007002002070B5164883
:10390000164EA0F12D0490F9021094F902204FF404
:103910008075914217D190F9010094F90510884201
:1039200011D1FEF7A3FC2169401AB0F5967F0AD9A0
:10393000A07978B10022A27129463046FEF791FCA9
:10394000FEF794FC206129463046BDE87040002215
:10395000FEF787BC0122EEE72D00002000080140A1
:1039600010B590F9004033B1641C63B20370934208
:1039700000DD017010BD641E63B203708B42F9DA82
:10398000027010BD810705D16421B0FBF1F201FB8B
:10399000120141B94FF4C871B0FBF1F201FB120002
:1039A00008B10020704701207047000030B593B087
:1039B000344800F0A9F8334C054633A194F90000CF
:1039C000009094F9013094F9022002A8FCF7B8FCA9
:1039D00094F9061094F90500CDE900012E4894F9F8
:1039E000043000EB85022DA106A8FCF7A9FC641F9A
:1039F00030A1E378A2780AA8FCF7A2FC227831A3D0
:103A000031A10EA8FCF79CFCFEF730FC283CA16815
:103A1000401AB0F57A7F33D34FF0FF31606A00F07F
:103A200055FE184800F0BCF800210A2000F0A6FA64
:103A30000122284902A800F0F7FA0F210A2000F01D
:103A40009DFA0122234906A800F0EEFA1E210A2061
:103A500000F094FA01221F490AA800F0E5FA2D218E
:103A60000A2000F08BFA01221A490EA800F0DCFAB5
:103A700000F0EEFA606A00F001FEFEF7F7FBA060CE
:103A800013B030BD2D000020253032643A2530328D
:103A9000643A253032640000E85C00082573202079
:103AA000253032642F253032642F32302530326495
:103AB0000000000054656D703A2025642E25642AAC
:103AC000430000002552480048756D69643A20257E
:103AD000642573004400002000B50D2812D2DFE8F1
:103AE00000F011070B070907090707090709070075
:103AF0001F2000BD1E2000BD0846FFF743FF08B190
:103B00001D2000BD1C2000BD90F904108AB290F960
:103B1000051090F906008BB200F5FA6080B2032B15
:103B200003D20146401E80B200E0811E1144C3EB67
:103B3000C30202EB03120923B2FBF3F289B2114470
:103B40006422B0FBF2F201EB9001891A4FF4C872C3
:103B5000B0FBF2F008440721001D90FBF1F201FBDD
:103B60001200C0B2704700000C4810B54078082819
:103B700013D2DFE800F0040A0A0A0A0A0E0EFFF761
:103B800015FFBDE81040FFF7B9BEBDE8104000F0DA
:103B90009FB8BDE8104000F03DB810BD0000002007
:103BA0007FB5044600208DF80C006425012303AA8C
:103BB000D02117480095FEF701FE072301AAD02166
:103BC00013480095FEF7D2FC9DF80400FEF7EBF8D1
:103BD00020709DF80500FEF7E6F860709DF806007D
:103BE000FEF7E1F8A0709DF80700FEF7DCF8E07042
:103BF0009DF80800FEF7D7F820719DF80900FEF740
:103C0000D2F860719DF80A00FEF7CDF8A0717FBD73
:103C10001C0100201FB5FEF729FB254C6169401AE5
:103C2000B0F5967F43D94FF0FF31606A00F04EFD4A
:103C3000207980B1002020711D482D30FFF7B0FFA2
:103C400094F9053094F902201AA16846FCF778FB34
:103C5000207910B111E00120EDE7617820200629DC
:103C600002D0072909D104E08DF801008DF8000089
:103C700003E08DF806008DF805000021084600F0ED
:103C80007DF901220E490FA000F0CEF91E210A2075
:103C900000F074F901220A49684600F0C5F900F005
:103CA000D7F9606A00F0EAFCFEF7E0FA60611FBD38
:103CB0000000002025303264203A20253032640094
:103CC0004C000020414C41524D20434C4F434B008F
:103CD00070B58CB0FEF7CAFA3C4CE168401AB0F5FA
:103CE000967F71D94FF0FF31606A00F0EFFCE07809
:103CF00048B30020E07035482D30FFF751FF3348BE
:103D00002D30FFF701FF314D06462D3530A195F9D5
:103D10000000009095F9013095F9022006A8FCF703
:103D20000FFB95F9061095F90500CDE900012C4827
:103D300095F9043000EB86022AA102A8FCF700FBEB
:103D4000E07810B126E00120D4E761782020062930
:103D500020D2DFE801F01F03080D12178DF81900BB
:103D60008DF8180016E08DF81C008DF81B0011E08E
:103D70008DF80E008DF80D000CE08DF811008DF817
:103D8000100007E08DF816008DF815008DF814006E
:103D90008DF8130000210A2000F0F0F801221749E5
:103DA00006A800F041F90F210A2000F0E7F80122EF
:103DB000124902A800F038F900F04AF9606A00F0F0
:103DC0005DFCFEF753FAE0600CB070BD000000200F
:103DD000253032643A253032643A253032640000AE
:103DE000E85C000825732020253032642F2530320E
:103DF000642F32302530326400000000440000207F
:103E000070B5294C064620466278406A4FF0FF3173
:103E100004F12D05082A45D2DFE802F044040B1214
:103E20001D24353B00F052FC172200213346A81C0C
:103E30001EE000F04BFC3B2200213346681C17E0DB
:103E400000F044FCA9796879FFF746FE42B20121EF
:103E50003346281D0CE000F039FC0C2201213346CA
:103E6000681D05E000F032FC334663220021A81DE6
:103E7000FFF776FD0C482D3000F018F8606ABDE8B9
:103E8000704000F0FBBB0848172200213346801C1D
:103E900004E005483B2200213346401DBDE8704048
:103EA000FFF75EBD70BD0000000000200EB50346A8
:103EB00000208DF804001878FEF7D3F88DF805007F
:103EC0005878FEF7CEF88DF806009878FEF7C9F816
:103ED0008DF80700D878FEF7C4F88DF80800187937
:103EE000FEF7BFF88DF809005879FEF7BAF88DF89B
:103EF0000A009879FEF7B5F88DF80B006420009061
:103F0000082301AAD0210248FEF758FC0EBD00008C
:103F10001C01002010B5002000F024F8BDE810407E
:103F200000F096B870B5802813D2402911D20B4BFF
:103F3000012401F007051E79AC40094BC90800EBCC
:103F4000C1100EB132B101E0012A03D0195CA143C6
:103F5000195470BD195C2143FAE700005400002099
:103F6000EC04002028B1FF224FF480610248FCF7E6
:103F70002DBC0022F8E70000EC040020014A10806C
:103F800051807047540000202DE9F04781462548B4
:103F90000D46924601882A781144802905D2804630
:103FA000408869780844402802D30020BDE8F087A3
:103FB00000262AE0A9F1200101FB00606A680024C4
:103FC00032F810701DE000BF07FA04F0000409D5B4
:103FD000B8F80210B8F800003144204489B280B229
:103FE00052460BE0BAF1000F1AD00022B8F80210C6
:103FF000B8F800003144204489B280B2FFF792FF44
:10400000641C2878A042DFD8761C6878B042D1D8EA
:10401000B8F800102A7848461144A8F80010C5E7FF
:104020000122E3E75400002070B515460E46044611
:1040300009E02A463146FFF7A7FF2178884201D0E0
:10404000C8B270BD641C20780028F2D1C0B270BD27
:1040500070B5104D002400BF04F1B000C2B20021C1
:10406000782000F095FE00221146782000F090FEA6
:1040700010220021782000F08BFE05EBC412802373
:104080004021782000F094FE641CE4B2082CE3D3B5
:1040900070BD0000EC0400200948FDF78DFE0848C3
:1040A0003830FDF789FE06481C30FDF785FE0448D0
:1040B0005430FDF781FE142000F0CCFAECE700004C
:1040C0000002002088B0114D114C4FF4FA66104ADE
:1040D00001212846FDF712FF30B10EA0FFF7F0FBDB
:1040E000304600F0B7FAF2E7E378A2780FA168460D
:1040F000FCF726F9227811A311A104A8FCF720F9F6
:104100006846FFF7DDFB04A8E8E70000000C01406B
:1041100028000020526561642074656D702C206851
:10412000756D6964206572726F72210054656D70DF
:104130003A2025642E25642A430A000025524800AF
:1041400048756D69643A20256425730A00000000F3
:1041500000250E4C6E1E4FF47A77207801280BD183
:104160003146606A00F0B2FAFFF7D4FEFFF770FF45
:10417000606A00F083FA2570FFF7F6FC0448FFF749
:10418000AFF9384600F066FAE7E7000000000020CB
:10419000C800002010B5FEF7F3FB01F0D3FB0128A7
:1041A00003D0BDE8104001F06DB810BD30B58FB040
:1041B00028216846FCF712FB14210AA8FCF70EFB25
:1041C00002250120049000951020059000244FF452
:1041D0006010CDE9084007956846FEF73DFD08B13F
:1041E00072B6FEE70F20CDE90A054FF48060CDE9F5
:1041F0000C4002210AA80E94FEF752FC002801D0C0
:1042000072B6FEE70FB030BD70470000F0B502682F
:10421000194B1A4C1A4D4FF08047984205D0B842BE
:1042200003D0A04201D0A84203D122F070064A6810
:104230003243984205D0B84203D0A04201D0A842F0
:1042400003D122F44074CA6822434C6922F08002F0
:10425000224302608A68C2620A688262984201D17F
:1042600009690163012141610169C90703D001693D
:1042700021F001010161F0BD002C0140000400406B
:104280000008004010B5846842EA032224F47F4409
:104290000A432243826010BD826822F070020A4302
:1042A00042F007018160704710B5036A046A24F088
:1042B00001040462846924F0F00444EA021423F047
:1042C0000A020A438461026210BD10B5036A046ADF
:1042D00024F010040462846923F0A00324F47044E1
:1042E00044EA023243EA01118261016210BD0168B1
:1042F0000C3151E8002F22F4907241E80023002B8A
:10430000F5D10168143151E8002F22F0010241E893
:104310000023002BF5D1016B012909D101680C3173
:1043200051E8002F22F0100241E80023002BF5D1C4
:10433000202180F8421000210163704770B50446C7
:1043400000680169E26821F440511143016121696B
:10435000A0680843616908432168CA6841F20C6398
:104360009A430243CA6020684169A26921F44071FE
:10437000114341611E492068884202D1FEF736FC94
:1043800001E0FEF723FC00EBC00101EB00126068C6
:1043900064218000B2FBF0F3B3FBF1F36FF0180679
:1043A0007343B2FBF0F5B2FBF0F605EB8305322365
:1043B00003EB0515B5FBF1F5B6FBF1F605F0F005DD
:1043C00005EB0615B2FBF0F6B2FBF0F0B0FBF1F036
:1043D0006FF01802504306EB800003EB0010B0FBB7
:1043E000F1F0216800F00F002844886070BD0000E3
:1043F000003801402DE9F843984617460D4604461B
:10440000089E24E0701C22D0FDF730FFA0EB0800CE
:10441000B0421AD8CEB12068C168490717D5802D9F
:1044200015D0402D13D00168C94309070FD4016886
:104430000025406800902046FFF759FF082060647F
:1044400084F840500120BDE8F8830320FBE7206892
:10445000006835EA000004D00020B842D2D0002025
:10446000F1E70120F9E7FEE7490050EAC12018BF53
:1044700004204A0D18BF40F0010040F2FF72B2EB79
:10448000515F08BF40F00200012808BF05207047B7
:104490000907090E002804DB00F1E02080F8001471
:1044A000704700F00F0000F1E02080F8141D704705
:1044B00030380A2801D20120704700207047704729
:1044C0000649884201D1012004E004491C31884298
:1044D00002D10020FFF794BC704700001C020020AE
:1044E000EFF30580002800D001207047044988427E
:1044F00004D1044806214170012101707047000079
:10450000000200200000002098B0FEF741FAFFF7FB
:104510004DFEFFF74BF942484049002401604149F4
:10452000C0E901144FF48045C0E90345446184614A
:10453000C4610462FDF7A0FE08B172B6FEE7384818
:104540003949543001603949C0E90114C0E90345D3
:1045500044618461C4610462FDF78EFE08B172B6E5
:10456000FEE7FFF779F92E483149F03001604FF44A
:10457000E131C0E901140C21C460C0E90441846147
:10458000C461FEF717FE08B172B6FEE72448A830F2
:10459000FDF7E8FC274E4FF4005231462648FDF760
:1045A00053FC25482A4631461C30FDF74DFC224875
:1045B0004FF4004231463830FDF746FC1E480822D1
:1045C0001E495430FDF740FC159415A8169400F0D0
:1045D0004DF81B4C1C221B4960626846FCF7C4F86E
:1045E0000021684600F0A4F81649A0611C221C3185
:1045F00007A8FCF7B9F8002107A800F099F81149BD
:10460000E0611C2238310EA8FCF7AEF800210EA89C
:1046100000F08EF8206200F024F8FEE7005400401D
:10462000C8000020801A060000580040A086010043
:1046300000380140000C0140000200200008014049
:1046400000000020045D000801460020842900D0FD
:10465000C81C704710B500B9012000F0B7FC00205D
:1046600010BD10B500F04EFD002010BD41684FF0A8
:10467000010009B100F027BE00F01ABE38B50024D1
:1046800005460094FFF72CFF90B16946284600F0DC
:104690006FFF012801D0FF2038BD009888B10A497A
:1046A0004FF080500860BFF34F8FBFF36F8F08E06B
:1046B00000231A461946284600F0AAFE012800D019
:1046C000FF24204638BD000004ED00E038B50500A9
:1046D0004FF0000000900FD00024481C0ED001B114
:1046E0000C46FFF7FDFEB8B16A460021284600F0EF
:1046F0008DFF012816D104E0802038BD4FF0FF3433
:10470000EFE7009880B109494FF080500860BFF38F
:104710004F8FBFF36F8F07E02146284600F0C4FF9C
:10472000012801D0FF2038BD002038BD04ED00E095
:104730007FB50D4604464169B0F9080081B1A16911
:1047400071B1FFF781FFD4E905128DE80700D4E9C4
:1047500000102B46226901F0CAF8039004B070BD26
:10476000FFF772FF03A9CDE90001208A2B4682B230
:10477000D4E9001001F08EF8012801D00020EDE707
:104780000398EBE72DE9F041184C0F460546E66823
:104790002068001D00F028FB38B9206890F82C1024
:1047A00001208840216981432161681C07D137B10C
:1047B0002168BDE8F0410E48091D00F059BB206892
:1047C0003544B5424560216805D2A06BBDE8F04193
:1047D000091D00F035BB606B091D00F031FBA06ABC
:1047E000854200D2A562BDE8F08100006000002093
:1047F000C80900202DE9F041054600F045FB2E4C8C
:10480000A068401CA06020682C4F10B1606940B3C4
:104810002DE02560A068012829D1002606EB86003E
:1048200007EB800000F0FEFA761C072EF6D3234833
:104830008C3000F0F7FA2148A03000F0F3FA1F485E
:10484000B43000F0EFFA1D48C83000F0EBFA1B4816
:10485000DC3000F0E7FA19488C3060631430A06354
:1048600005E02068E96AC06A884200D82560606A6D
:10487000401C6062E96A012022698840104320617F
:1048800001EB810007EB8000291D00F0F1FA00F038
:104890001BFB606900280CD02068E96AC06A884266
:1048A00007D207494FF080500860BFF34F8FBFF326
:1048B0006F8FBDE8F081000060000020EC08002050
:1048C00004ED00E030B4026C0B46002A0BD0C16846
:1048D0001144C1608468A14201D30168C16030BC49
:1048E0001846FBF7FCBE30BC70472DE9F041856BE4
:1048F000174604460026026C82B1C7B1E068FBF798
:10490000EEFEE168206C091AE1602268914202D251
:10491000A168081AE060022F16D017E02068A8B935
:10492000A06801F083F806460020A0600EE06068F1
:10493000FBF7D5FE216C606808446060A16888427E
:1049400004D32068606001E005B16D1E6D1CA56395
:104950003046BDE8F08110B5044690F8510058B1DA
:1049600001280CD002280FD0502080F31188BFF30B
:104970004F8FBFF36F8FFEE7206B00F0B9FA204630
:10498000BDE8104000F0B4BA10BD000010484FF46C
:104990004061420706D0C01D0D4920F00700411AB2
:1049A000C1F540610B4A00230144C2E90003083904
:1049B000183A21F0070111604B600B600B1AC0E937
:1049C000001393604FF00040536050617047000047
:1049D000DC090020B4000020144E154CA6F1C807D5
:1049E0004FF08058DFF84C9012E000BF00F04CFA16
:1049F000F068C568281D00F0F7F9A068401EA060A7
:104A00006068401E606000F05FFA2846FFF7A3FF71
:104A100060680028EAD138680128F9D9C9F800800F
:104A2000BFF34F8FBFF36F8FF2E70000B409002090
:104A30006000002004ED00E0002807D00021816024
:104A400001600B460A46C16000F0E2BC70470346B5
:104A5000009829B10260C0E90F31012100F094BC37
:104A60000060F8E72DE9F0479A46DDE909848146C0
:104A70006FF00303206B03EB82021044089E20F0CA
:104A80000707780707D0502080F31188BFF34F8FB6
:104A9000BFF36F8FFEE7002561B1002023180A5C89
:104AA00083F834200A5C12B1401C1028F6D384F835
:104AB000435001E084F83450072E00D30626E66206
:104AC000C4E91165201D00F0B8F904F1180000F0E8
:104AD000B4F92461C6F107006462A061E56484F85A
:104AE000505052464946384600F010F92060B8F15F
:104AF000000F01D0C8F80040BDE8F08730B511497B
:104B000000E011460A688242FBD34B685C1884427D
:104B100003D1406818444860084643681C18944212
:104B200009D1084C183C2468A24209D052681A44A2
:104B300042600A6812680260814200D0086030BD9D
:104B40000460F9E7B400002010B5044600F09CF9B9
:104B5000A06B28B15FF0000400F0B6F9204610BD4C
:104B60000124F9E70648416B096829B1416BC9681E
:104B7000C9684968816270474FF0FF31FAE7000069
:104B80006000002008484068401C4FF0500080F34F
:104B9000118804D0BFF34F8FBFF36F8FFEE7BFF3D1
:104BA0004F8FBFF36F8FFEE7BC0000202DE9F0416F
:104BB000044600F069F994F9455004F1240609E02F
:104BC000606A48B1304600F0C3FF08B100F02CFA2B
:104BD0006D1E6DB2002DF3DC4FF0FF3684F845609A
:104BE00000F072F900F050F994F9445004F1100704
:104BF00009E0206948B1384600F0AAFF08B100F08A
:104C000013FA6D1E6DB2002DF3DC84F84460BDE82C
:104C1000F04100F059B900002DE9F04105460027A8
:104C200000F0A6FA324E306808B9FFF7AFFE70699F
:104C300005424ED1C5B3083568070ED005F0070010
:104C4000C0F108000544680707D0502080F31188A0
:104C5000BFF34F8FBFF36F8FFEE72DB370688542B0
:104C600037D82348183001460C6801E020460C462E
:104C70006168A94202D221680029F7D131688C42CB
:104C800027D007682168016060680837411B102938
:104C90000FD96019420708D0502080F31188BFF364
:104CA0004F8FBFF36F8FFEE713E041606560FFF742
:104CB00025FF61687068401A7060B268904200D247
:104CC000B060706901430020C4E90001F068401C35
:104CD000F06000F077FF780707D0502080F311884C
:104CE000BFF34F8FBFF36F8FFEE73846BDE8F0810B
:104CF0009C0000200449086818B10868826C521CA6
:104D000082640868704700006000002010B5031F2F
:104D10004FF080741C601B1F21F001011960191FE6
:104D2000024B0B60143940380A6010BD854B0008F7
:104D300070B5154988420ED1144C002560780828BA
:104D400009D2DFE800F00406090B0D0F1113012052
:104D500000E00220607070BD0320FBE70420F9E74B
:104D60000520F7E7657070BD0720F3E74FF0FF36C9
:104D70003146606AFFF7AAFCFFF7CCF83146606A5B
:104D8000FFF7A4FCEEE70000000200200000002076
:104D90001CB502238DF804100A2100918DF805201E
:104DA000014601AA0148FDF709FD1CBDC80000200D
:104DB00070B5C2B000248DF8041001A904E0155D9F
:104DC0000E19641C7570E4B29C42F8D30A2100915C
:104DD0005B1C01469BB201AA0248FDF7EFFC42B002
:104DE00070BD0000C8000020D0E9013201699A605E
:104DF000D0E901235A604A68824201D182684A6040
:104E0000002202610868401E0860086870470000C0
:104E1000034B036003F1540008608020106070476A
:104E20009802002000F108014FF0FF32C0E90112A2
:104E3000C16001610021016070470021016170477C
:104E400030B50B685A1C02D000F1080202E002697A
:104E500004E02246546825689D42FAD953684B60A5
:104E600099608A60516008610168491C016030BD29
:104E700042684A6093688B609368596091600861EA
:104E80000168491C01607047502080F31188BFF30E
:104E90004F8FBFF36F8F0A494868401C4860012854
:104EA0000CD10848006810F0FF0F07D0502080F3A5
:104EB0001188BFF34F8FBFF36F8FFEE7704700007D
:104EC000BC00002004ED00E00849486828B1401EFD
:104ED000486001D180F311887047502080F3118819
:104EE000BFF34F8FBFF36F8FFEE70000BC000020C1
:104EF00070B500282AD0164DA0F1080460686969D1
:104F0000084207D1502080F31188BFF34F8FBFF3C1
:104F10006F8FFEE722683AB1502080F31188BFF30B
:104F20004F8FBFF36F8FFEE78843606000F020F97A
:104F300060686968084468602046FFF7DFFD2869FB
:104F4000401C2861BDE8704000F03CBE70BD000010
:104F50009C0000204FF0E0200021016181610549A3
:104F60004FF47A720968B1FBF2F1491E41610721E1
:104F7000016170474000002010B5FBF7A3F911490B
:104F800010280ED300F1E02090F8F0030A78904248
:104F900007D2502080F31188BFF34F8FBFF36F8F7C
:104FA000FEE709480068896800F4E060884207D994
:104FB000502080F31188BFF34F8FBFF36F8FFEE750
:104FC00010BD0000BC0000200CED00E010B5020098
:104FD00014D00F48006B38B1502080F31188BFF314
:104FE0004F8FBFF36F8FFEE700F0C2F8002110462D
:104FF000FFF7C8FB00F0E6FD002807D105494FF098
:1050000080500860BFF34F8FBFF36F8F10BD00005B
:105010006000002004ED00E002490A6A0260C968ED
:10502000416070476000002001490120C86170475D
:105030006000002010B50C4650B1094909681831CC
:10504000FFF7FEFE2046BDE810400121FFF79ABBA6
:10505000502080F31188BFF34F8FBFF36F8FFEE7AF
:105060006000002070B5040047D0A26CA2B1606C53
:10507000884200D30146E06A88423ED0012A3CD1F2
:105080001E4D2A6894420FD1502080F31188BFF33F
:105090004F8FBFF36F8FFEE7502080F31188BFF36F
:1050A0004F8FBFF36F8FFEE7E162A269002A02DB38
:1050B000C1F10701A161124E00EB8000616906EBAE
:1050C0008000814219D1201DFFF78EFE012130B9E9
:1050D00094F82C002A6901FA00F082432A61E06A00
:1050E0002A6981401143296100EB800006EB8000B2
:1050F000211DBDE87040FFF7BBBE70BD6000002001
:10510000EC08002010B586B00024039405AA04A979
:1051100003A80494FFF77CFEDDE903010094CDE9C8
:10512000011000230EA11048059A00F0E0FB0F4982
:105130000028C86211D0502080F31188BFF34F8F30
:10514000BFF36F8F4FF0FF30886201204861CC6061
:1051500006B0BDE8104000F041B806B010BD000038
:1051600049444C4500000000D94900086000002077
:105170000248016B491C0163704700006000002079
:105180001448016B11B10121C16170470021C16157
:105190000169B1FA81F1C1F11F0101EB81020E49F0
:1051A00051F822306BB101EB820101F108034A682A
:1051B00052684A609A4201D152684A60D1680160DF
:1051C0007047502080F31188BFF34F8FBFF36F8F6C
:1051D000FEE7000060000020EC0800201CB5264916
:1051E00008780190FF20087008788DF800009DF87D
:1051F00000009DF8002000F0F000904207D0502001
:1052000080F31188BFF34F8FBFF36F8FFEE79DF8D8
:1052100000001A4C00F0500020700720A06005E04C
:105220009DF8002052008DF80020401E9DF80020BF
:105230001206F5D4A060032807D0502080F311880F
:10524000BFF34F8FBFF36F8FFEE74FF44070A06046
:10525000019808700A48016841F470010160016812
:1052600041F070410160FFF775FE00206060FAF7C1
:10527000F3FF00201CBD000000E400E0BC000020A3
:1052800020ED00E010B5502080F31188BFF34F8F60
:10529000BFF36F8F00F064FB18B104494FF08050EA
:1052A0000860002080F3118810BD000004ED00E0CC
:1052B00010B502460021012000F012F80446FFF765
:1052C000BBFB204610BD38B50B46002200901146AE
:1052D000012000F026F80446FFF7AEFB204638BD5B
:1052E000F8B517460E46050013D005FB06F048300A
:1052F000FFF792FC04000AD0002084F8460004F175
:1053000048023B46314628460094FFF7A0FB204662
:10531000F8BD502080F31188BFF34F8FBFF36F8F1C
:10532000FEE738B5049D18B153B1CAB181B120E090
:10533000502080F31188BFF34F8FBFF36F8FFEE7CC
:10534000502080F31188BFF34F8FBFF36F8FFEE7BC
:10535000502080F31188BFF34F8FBFF36F8FFEE7AC
:1053600039B1502080F31188BFF34F8FBFF36F8F97
:10537000FEE748241C46012384F846302B4600945F
:10538000FFF765FB204638BD70B50D46040025D0FB
:10539000FFF77AFDD4E90F20216802FB0011A1601C
:1053A0000021A163216861600A46D4E90F01401E13
:1053B00000FB0121E16021464FF0FF3001F8440F6E
:1053C000487004F110008DB1FFF72CFD04F12400AA
:1053D000FFF728FDFFF778FD012070BD502080F316
:1053E0001188BFF34F8FBFF36F8FFEE7216900294C
:1053F000F0D000F0ADFB0028ECD004494FF0805015
:105400000860BFF34F8FBFF36F8FE3E704ED00E059
:105410002DE9FF4782B01D468A464FF00008040080
:1054200003D0BAF1000F08D011E0502080F31188AA
:10543000BFF34F8FBFF36F8FFEE7206C38B1502062
:1054400080F31188BFF34F8FBFF36F8FFEE7022DFC
:105450000AD1E06B012807D0502080F31188BFF3F8
:105460004F8FBFF36F8FFEE700F06CFA3F4F4FF0A6
:1054700000094FF0805648B9049838B1502080F3A5
:105480001188BFF34F8FBFF36F8FFEE7FFF7FCFC70
:10549000A06BE16B884207D3022D05D00498D0B1F0
:1054A000B8F1000F1AD01EE02A4651462046FFF7F9
:1054B0001CFA616A19B104F1240000F049FB20B123
:1054C0003E60BFF34F8FBFF36F8FFFF7FDFC0120EE
:1054D00006B0BDE8F087FFF7F7FC22E06846FFF76B
:1054E0009BFD4FF00108FFF7EFFCFFF741FEFFF7D0
:1054F000CBFC94F94400401C01D184F8449094F909
:105500004500401C01D184F84590FFF7DDFC04A95B
:10551000684600F085F930B12046FFF747FB00F000
:1055200051FB0020D4E7FFF7AFFCA06BE16B884292
:1055300013D1FFF7C9FC04F110000499FFF77AFDBD
:105540002046FFF733FB00F03DFB00289ED13E6074
:10555000BFF34F8FBFF36F8F98E7FFF7B5FC20467F
:10556000FFF724FB00F02EFB90E7000004ED00E0C5
:1055700070B50E46040009D0206C78B1502080F33D
:105580001188BFF34F8FBFF36F8FFEE7502080F37A
:105590001188BFF34F8FBFF36F8FFEE7206848B9C4
:1055A000A06838B1502080F31188BFF34F8FBFF34C
:1055B0006F8FFEE7FFF7E0FC5020EFF3118580F3DB
:1055C0001188BFF34F8FBFF36F8FA16BE06B8842E1
:1055D00018D994F94500491CA163411C04D0401C12
:1055E00084F8450001200EE0606A0028FAD004F13A
:1055F000240000F0ADFA0028F4D0002EF2D00120F3
:105600003060EFE7002085F3118870BD2DE9F04789
:1056100090468946040003D0B9F1000F08D011E08C
:10562000502080F31188BFF34F8FBFF36F8FFEE7D9
:10563000206C38B1502080F31188BFF34F8FBFF337
:105640006F8FFEE7FFF798FC5020EFF3118680F391
:105650001188BFF34F8FBFF36F8FA76BF7B194F92A
:10566000445049462046FFF72DF97F1EA763681C6A
:1056700004D06D1C84F84450012010E020690028FB
:10568000FAD004F1100000F063FA0028F4D0B8F169
:10569000000FF1D00121C8F80010EDE7002086F3DB
:1056A0001188BDE8F08700002DE9F343002683B0A0
:1056B0000400354609D0206C78B1502080F3118861
:1056C000BFF34F8FBFF36F8FFEE7502080F3118839
:1056D000BFF34F8FBFF36F8FFEE700F033F9DFF8B2
:1056E0003C814FF000094FF0805748B9049838B119
:1056F000502080F31188BFF34F8FBFF36F8FFEE709
:10570000FFF7C2FBA06BC8B1401EA063206810B9B0
:10571000FFF7F0FAA060206950B104F1100000F02A
:1057200017FA28B1C8F80070BFF34F8FBFF36F8F1F
:10573000FFF7CAFB012005B0BDE8F083049808B16B
:1057400066B10FE03DB1502080F31188BFF34F8F59
:10575000BFF36F8FFEE7FFF7B7FB5DE06846FFF72B
:105760005BFC0126FFF7B0FBFFF702FDFFF78CFBA8
:1057700094F94400401C01D184F8449094F9450008
:10578000401C01D184F84590FFF79EFB04A96846B0
:1057900000F046F80028204612D0FFF707FA00F084
:1057A00011FA2046FFF7D0F90028A9D09DB3FFF7E2
:1057B0006BFB606A50B3206B0068C0F1070126E004
:1057C000FFF7C2F9E0B1206838B9FFF75DFBA068C8
:1057D00000F078F90546FFF777FB04F124000499FF
:1057E000FFF728FC2046FFF7E1F900F0EBF900286D
:1057F00086D1C8F80070BFF34F8FBFF36F8F7FE77C
:105800002046FFF7D3F900F0DDF979E70021A06821
:10581000FFF728FC9FE7FFE700208CE704ED00E09E
:105820002DE9F0410C46050011D0C4B1FFF72CFB67
:10583000174BDA686E682068911B471C17D02F68D9
:105840001B6A9F4219D0964217D8012410E05020BD
:1058500080F31188BFF34F8FBFF36F8FFEE75020A7
:1058600080F31188BFF34F8FBFF36F8FFEE70024E3
:10587000FFF72AFB2046BDE8F081884205D9401A8F
:1058800020602846FFF7C8FBF1E700202060DCE736
:10589000600000202DE9FF5F8346DDE90E87994611
:1058A00016468A469000FFF7B7F905001CD0542031
:1058B000FFF7B2F9040014D00020256384F85100EA
:1058C000CDE90240CDE900874B4632465146584665
:1058D000FFF7C8F82046FEF78DFF012004B0BDE8B1
:1058E000F09F2846FFF704FB4FF0FF30F6E7F0B5D6
:1058F00085B0DDE90B640A9DA6B1DCB154270097A1
:105900002663022684F85160002604AFCDE90246E2
:10591000CDE90057FFF7A6F82046FEF76BFF049885
:1059200005B0F0BD502080F31188BFF34F8FBFF357
:105930006F8FFEE7502080F31188BFF34F8FBFF3C6
:105940006F8FFEE70548416919B1006B18B100205F
:10595000704701207047022070470000600000205F
:105960002DE9F0412F4C0026206B28B1A069401C86
:10597000A0613046BDE8F081E5686D1CE56013D19B
:10598000606B006838B1502080F31188BFF34F8FEF
:10599000BFF36F8FFEE7606BA16B6163A063206A4A
:1059A000401C2062FFF7DEF8A06ADFF87C808542A9
:1059B00009D3606B0068A0B1606BC068C768786885
:1059C000854211D2A0622068C06A00EB800158F8BD
:1059D0002100012800D90126E0690028C9D001264C
:1059E000C7E74FF0FF30EDE7381DFFF7FDF9B86A64
:1059F00018B107F11800FFF7F7F9F96A01202269D9
:105A000088401043206101EB810108EB8100391DC2
:105A1000FFF72EFAF86A2168C96A8842C9D30126BD
:105A2000C7E7000060000020EC08002070B504000B
:105A30004FF0000140D0214D2868844207D050200B
:105A400080F31188BFF34F8FBFF36F8FFEE7A06C19
:105A500038B1401EA064636CE26A9A422CD040B117
:105A60002AE0502080F31188BFF34F8FBFF36F8F70
:105A7000FEE7201DFFF7B8F9114A012150B9E06A8D
:105A800000EB800352F8233023B92B6901FA00F0B0
:105A900083432B61606CE062C0F10700A061E06AA3
:105AA0002B6981401943296100EB800002EB8000E3
:105AB000211DFFF7DDF90121084670BD60000020BF
:105AC000EC08002070B504004FF0000034D01E4DEB
:105AD000E16A2A68D26A91422FD2A069002804DBC9
